{
  "contractName": "DDNSService",
  "abi": [
    {
      "constant": true,
      "inputs": [],
      "name": "IP_ADDRESS_MIN_LENGTH",
      "outputs": [
        {
          "name": "",
          "type": "uint8"
        }
      ],
      "payable": false,
      "stateMutability": "view",
      "type": "function"
    },
    {
      "constant": true,
      "inputs": [],
      "name": "DOMAIN_NAME_MIN_LENGTH",
      "outputs": [
        {
          "name": "",
          "type": "uint8"
        }
      ],
      "payable": false,
      "stateMutability": "view",
      "type": "function"
    },
    {
      "constant": false,
      "inputs": [],
      "name": "destroy",
      "outputs": [],
      "payable": false,
      "stateMutability": "nonpayable",
      "type": "function"
    },
    {
      "constant": true,
      "inputs": [],
      "name": "owner",
      "outputs": [
        {
          "name": "",
          "type": "address"
        }
      ],
      "payable": false,
      "stateMutability": "view",
      "type": "function"
    },
    {
      "constant": true,
      "inputs": [
        {
          "name": "",
          "type": "address"
        },
        {
          "name": "",
          "type": "uint256"
        }
      ],
      "name": "receipts",
      "outputs": [
        {
          "name": "amountPaidWei",
          "type": "uint256"
        },
        {
          "name": "timestamp",
          "type": "uint256"
        },
        {
          "name": "expires",
          "type": "uint256"
        }
      ],
      "payable": false,
      "stateMutability": "view",
      "type": "function"
    },
    {
      "constant": true,
      "inputs": [],
      "name": "PRICE_INCREASE_BOUND_INDEX",
      "outputs": [
        {
          "name": "",
          "type": "uint8"
        }
      ],
      "payable": false,
      "stateMutability": "view",
      "type": "function"
    },
    {
      "constant": true,
      "inputs": [],
      "name": "TOP_LEVEL_DOMAIN_MIN_LENGTH",
      "outputs": [
        {
          "name": "",
          "type": "uint8"
        }
      ],
      "payable": false,
      "stateMutability": "view",
      "type": "function"
    },
    {
      "constant": true,
      "inputs": [],
      "name": "BYTES_DEFAULT_VALUE",
      "outputs": [
        {
          "name": "",
          "type": "bytes1"
        }
      ],
      "payable": false,
      "stateMutability": "view",
      "type": "function"
    },
    {
      "constant": false,
      "inputs": [
        {
          "name": "_newOwner",
          "type": "address"
        }
      ],
      "name": "transferOwnership",
      "outputs": [],
      "payable": false,
      "stateMutability": "nonpayable",
      "type": "function"
    },
    {
      "constant": false,
      "inputs": [
        {
          "name": "_recipient",
          "type": "address"
        }
      ],
      "name": "destroyAndSend",
      "outputs": [],
      "payable": false,
      "stateMutability": "nonpayable",
      "type": "function"
    },
    {
      "inputs": [],
      "payable": false,
      "stateMutability": "nonpayable",
      "type": "constructor"
    },
    {
      "anonymous": false,
      "inputs": [
        {
          "indexed": true,
          "name": "timestamp",
          "type": "uint256"
        },
        {
          "indexed": true,
          "name": "domainName",
          "type": "bytes"
        },
        {
          "indexed": true,
          "name": "owner",
          "type": "address"
        }
      ],
      "name": "DomainNameRegistered",
      "type": "event"
    },
    {
      "anonymous": false,
      "inputs": [
        {
          "indexed": true,
          "name": "timestamp",
          "type": "uint256"
        },
        {
          "indexed": true,
          "name": "domainName",
          "type": "bytes"
        },
        {
          "indexed": true,
          "name": "owner",
          "type": "address"
        }
      ],
      "name": "DomainNameExtended",
      "type": "event"
    },
    {
      "anonymous": false,
      "inputs": [
        {
          "indexed": true,
          "name": "timestamp",
          "type": "uint256"
        },
        {
          "indexed": true,
          "name": "domainName",
          "type": "bytes"
        },
        {
          "indexed": true,
          "name": "owner",
          "type": "address"
        }
      ],
      "name": "DomainNameEdited",
      "type": "event"
    },
    {
      "anonymous": false,
      "inputs": [
        {
          "indexed": true,
          "name": "timestamp",
          "type": "uint256"
        },
        {
          "indexed": true,
          "name": "domainName",
          "type": "bytes"
        },
        {
          "indexed": true,
          "name": "owner",
          "type": "address"
        },
        {
          "indexed": false,
          "name": "newOwner",
          "type": "address"
        }
      ],
      "name": "DomainNameTransferred",
      "type": "event"
    },
    {
      "anonymous": false,
      "inputs": [
        {
          "indexed": true,
          "name": "timestamp",
          "type": "uint256"
        },
        {
          "indexed": true,
          "name": "_owner",
          "type": "address"
        },
        {
          "indexed": true,
          "name": "amount",
          "type": "uint256"
        }
      ],
      "name": "PurchaseChangeReturned",
      "type": "event"
    },
    {
      "anonymous": false,
      "inputs": [
        {
          "indexed": true,
          "name": "_currentOwner",
          "type": "address"
        },
        {
          "indexed": true,
          "name": "_newOwner",
          "type": "address"
        }
      ],
      "name": "LogOwnershipTransfered",
      "type": "event"
    },
    {
      "constant": false,
      "inputs": [
        {
          "name": "domain",
          "type": "bytes"
        },
        {
          "name": "ip",
          "type": "bytes4"
        }
      ],
      "name": "register",
      "outputs": [],
      "payable": true,
      "stateMutability": "payable",
      "type": "function"
    },
    {
      "constant": false,
      "inputs": [
        {
          "name": "domain",
          "type": "bytes"
        }
      ],
      "name": "extendExpirationDate",
      "outputs": [],
      "payable": true,
      "stateMutability": "payable",
      "type": "function"
    },
    {
      "constant": false,
      "inputs": [
        {
          "name": "domain",
          "type": "bytes"
        },
        {
          "name": "newIp",
          "type": "bytes4"
        }
      ],
      "name": "edit",
      "outputs": [],
      "payable": false,
      "stateMutability": "nonpayable",
      "type": "function"
    },
    {
      "constant": false,
      "inputs": [
        {
          "name": "domain",
          "type": "bytes"
        },
        {
          "name": "newOwner",
          "type": "address"
        }
      ],
      "name": "transferDomain",
      "outputs": [],
      "payable": false,
      "stateMutability": "nonpayable",
      "type": "function"
    },
    {
      "constant": true,
      "inputs": [
        {
          "name": "domain",
          "type": "bytes"
        }
      ],
      "name": "getIP",
      "outputs": [
        {
          "name": "",
          "type": "bytes4"
        }
      ],
      "payable": false,
      "stateMutability": "view",
      "type": "function"
    },
    {
      "constant": true,
      "inputs": [
        {
          "name": "domain",
          "type": "bytes"
        }
      ],
      "name": "getPrice",
      "outputs": [
        {
          "name": "",
          "type": "uint256"
        }
      ],
      "payable": false,
      "stateMutability": "view",
      "type": "function"
    },
    {
      "constant": true,
      "inputs": [],
      "name": "getReceiptList",
      "outputs": [
        {
          "components": [
            {
              "name": "amountPaidWei",
              "type": "uint256"
            },
            {
              "name": "timestamp",
              "type": "uint256"
            },
            {
              "name": "expires",
              "type": "uint256"
            }
          ],
          "name": "",
          "type": "tuple[]"
        }
      ],
      "payable": false,
      "stateMutability": "view",
      "type": "function"
    },
    {
      "constant": false,
      "inputs": [],
      "name": "withdraw",
      "outputs": [],
      "payable": false,
      "stateMutability": "nonpayable",
      "type": "function"
    }
  ],
  "bytecode": "0x6060604052341561000f57600080fd5b336000806101000a81548173ffffffffffffffffffffffffffffffffffffffff021916908373ffffffffffffffffffffffffffffffffffffffff1602179055506117878061005e6000396000f3006060604052600436106100fc576000357c0100000000000000000000000000000000000000000000000000000000900463ffffffff1680631673f0081461010157806331977cd0146101865780633ccfd60b146101b5578063666916f8146101ca5780636b4dd158146101f95780636bdc53ce1461026a57806383197ef0146102bc5780638da5cb5b146102d15780639df35ba714610326578063a08ad97d146103a2578063a79eebbc14610406578063b21659f21461046b578063c899f27b1461051a578063d678ddf514610549578063d8d5773314610578578063efacd294146105e5578063f2fde38b1461065f578063f5074f4114610698575b600080fd5b341561010c57600080fd5b610184600480803590602001908201803590602001908080601f016020809104026020016040519081016040528093929190818152602001838380828437820191505050505050919080357bffffffffffffffffffffffffffffffffffffffffffffffffffffffff19169060200190919050506106d1565b005b341561019157600080fd5b6101996108ed565b604051808260ff1660ff16815260200191505060405180910390f35b34156101c057600080fd5b6101c86108f2565b005b34156101d557600080fd5b6101dd6109c7565b604051808260ff1660ff16815260200191505060405180910390f35b341561020457600080fd5b610254600480803590602001908201803590602001908080601f016020809104026020016040519081016040528093929190818152602001838380828437820191505050505050919050506109cc565b6040518082815260200191505060405180910390f35b6102ba600480803590602001908201803590602001908080601f016020809104026020016040519081016040528093929190818152602001838380828437820191505050505050919050506109d3565b005b34156102c757600080fd5b6102cf610c9b565b005b34156102dc57600080fd5b6102e4610d30565b604051808273ffffffffffffffffffffffffffffffffffffffff1673ffffffffffffffffffffffffffffffffffffffff16815260200191505060405180910390f35b341561033157600080fd5b6103a0600480803590602001908201803590602001908080601f0160208091040260200160405190810160405280939291908181526020018383808284378201915050505050509190803573ffffffffffffffffffffffffffffffffffffffff16906020019091905050610d55565b005b34156103ad57600080fd5b6103e2600480803573ffffffffffffffffffffffffffffffffffffffff16906020019091908035906020019091905050610fae565b60405180848152602001838152602001828152602001935050505060405180910390f35b341561041157600080fd5b610419610ff4565b60405180806020018281038252838181518152602001915080516000925b8184101561045a5782849060200190602002015181526020019260010192610437565b925050509250505060405180910390f35b341561047657600080fd5b6104c6600480803590602001908201803590602001908080601f016020809104026020016040519081016040528093929190818152602001838380828437820191505050505050919050506110b5565b60405180827bffffffffffffffffffffffffffffffffffffffffffffffffffffffff19167bffffffffffffffffffffffffffffffffffffffffffffffffffffffff1916815260200191505060405180910390f35b341561052557600080fd5b61052d611156565b604051808260ff1660ff16815260200191505060405180910390f35b341561055457600080fd5b61055c61115b565b604051808260ff1660ff16815260200191505060405180910390f35b341561058357600080fd5b61058b611160565b60405180827effffffffffffffffffffffffffffffffffffffffffffffffffffffffffffff19167effffffffffffffffffffffffffffffffffffffffffffffffffffffffffffff1916815260200191505060405180910390f35b61065d600480803590602001908201803590602001908080601f016020809104026020016040519081016040528093929190818152602001838380828437820191505050505050919080357bffffffffffffffffffffffffffffffffffffffffffffffffffffffff1916906020019091905050611187565b005b341561066a57600080fd5b610696600480803573ffffffffffffffffffffffffffffffffffffffff169060200190919050506114f9565b005b34156106a357600080fd5b6106cf600480803573ffffffffffffffffffffffffffffffffffffffff169060200190919050506115f1565b005b813373ffffffffffffffffffffffffffffffffffffffff166002826040518082805190602001908083835b60208310151561072157805182526020820191506020810190506020830392506106fc565b6001836020036101000a038019825116818451168082178552505050505050905001915050908152602001604051809103902060000160009054906101000a900473ffffffffffffffffffffffffffffffffffffffff1673ffffffffffffffffffffffffffffffffffffffff1614151561079a57600080fd5b816002846040518082805190602001908083835b6020831015156107d357805182526020820191506020810190506020830392506107ae565b6001836020036101000a038019825116818451168082178552505050505050905001915050908152602001604051809103902060000160146101000a81548163ffffffff02191690837c0100000000000000000000000000000000000000000000000000000000900402179055503373ffffffffffffffffffffffffffffffffffffffff16836040518082805190602001908083835b60208310151561088e5780518252602082019150602081019050602083039250610869565b6001836020036101000a0380198251168184511680821785525050505050509050019150506040518091039020427fe16f2c4f2fb7e7cf2e2eeeeceb66d9fe7eec69e7eb9639f329f95f5fbde89aca60405160405180910390a4505050565b600681565b6000809054906101000a900473ffffffffffffffffffffffffffffffffffffffff1673ffffffffffffffffffffffffffffffffffffffff163373ffffffffffffffffffffffffffffffffffffffff1614151561094d57600080fd5b6000809054906101000a900473ffffffffffffffffffffffffffffffffffffffff1673ffffffffffffffffffffffffffffffffffffffff166108fc3073ffffffffffffffffffffffffffffffffffffffff16319081150290604051600060405180830381858888f1935050505015156109c557600080fd5b565b600581565b6000919050565b6109db611665565b813373ffffffffffffffffffffffffffffffffffffffff166002826040518082805190602001908083835b602083101515610a2b5780518252602082019150602081019050602083039250610a06565b6001836020036101000a038019825116818451168082178552505050505050905001915050908152602001604051809103902060000160009054906101000a900473ffffffffffffffffffffffffffffffffffffffff1673ffffffffffffffffffffffffffffffffffffffff16141515610aa457600080fd5b670de0b6b3a76400003410151515610abb57600080fd5b6301e133806002846040518082805190602001908083835b602083101515610af85780518252602082019150602081019050602083039250610ad3565b6001836020036101000a038019825116818451168082178552505050505050905001915050908152602001604051809103902060010160008282540192505081905550606060405190810160405280670de0b6b3a764000081526020014281526020016301e1338042018152509150600160003373ffffffffffffffffffffffffffffffffffffffff1673ffffffffffffffffffffffffffffffffffffffff1681526020019081526020016000208054806001018281610bb89190611687565b916000526020600020906003020160008490919091506000820151816000015560208201518160010155604082015181600201555050503373ffffffffffffffffffffffffffffffffffffffff16836040518082805190602001908083835b602083101515610c3c5780518252602082019150602081019050602083039250610c17565b6001836020036101000a0380198251168184511680821785525050505050509050019150506040518091039020427fd48c6405ad5ea7ffd11bcee1b2a2e7c364a05a41209145d2288293e93c8c3ae060405160405180910390a4505050565b6000809054906101000a900473ffffffffffffffffffffffffffffffffffffffff1673ffffffffffffffffffffffffffffffffffffffff163373ffffffffffffffffffffffffffffffffffffffff16141515610cf657600080fd5b6000809054906101000a900473ffffffffffffffffffffffffffffffffffffffff1673ffffffffffffffffffffffffffffffffffffffff16ff5b6000809054906101000a900473ffffffffffffffffffffffffffffffffffffffff1681565b813373ffffffffffffffffffffffffffffffffffffffff166002826040518082805190602001908083835b602083101515610da55780518252602082019150602081019050602083039250610d80565b6001836020036101000a038019825116818451168082178552505050505050905001915050908152602001604051809103902060000160009054906101000a900473ffffffffffffffffffffffffffffffffffffffff1673ffffffffffffffffffffffffffffffffffffffff16141515610e1e57600080fd5b816002846040518082805190602001908083835b602083101515610e575780518252602082019150602081019050602083039250610e32565b6001836020036101000a038019825116818451168082178552505050505050905001915050908152602001604051809103902060000160006101000a81548173ffffffffffffffffffffffffffffffffffffffff021916908373ffffffffffffffffffffffffffffffffffffffff1602179055503373ffffffffffffffffffffffffffffffffffffffff16836040518082805190602001908083835b602083101515610f185780518252602082019150602081019050602083039250610ef3565b6001836020036101000a0380198251168184511680821785525050505050509050019150506040518091039020427f6833a983f4f2edf1da5046a58db45c152399f78c374dbb02feb9be50e722767585604051808273ffffffffffffffffffffffffffffffffffffffff1673ffffffffffffffffffffffffffffffffffffffff16815260200191505060405180910390a4505050565b600160205281600052604060002081815481101515610fc957fe5b9060005260206000209060030201600091509150508060000154908060010154908060020154905083565b610ffc6116b9565b600160003373ffffffffffffffffffffffffffffffffffffffff1673ffffffffffffffffffffffffffffffffffffffff168152602001908152602001600020805480602002602001604051908101604052809291908181526020016000905b828210156110ac57838290600052602060002090600302016060604051908101604052908160008201548152602001600182015481526020016002820154815250508152602001906001019061105b565b50505050905090565b60006002826040518082805190602001908083835b6020831015156110ef57805182526020820191506020810190506020830392506110ca565b6001836020036101000a038019825116818451168082178552505050505050905001915050908152602001604051809103902060000160149054906101000a90047c0100000000000000000000000000000000000000000000000000000000029050919050565b600981565b600181565b60007f01000000000000000000000000000000000000000000000000000000000000000281565b61118f6116cd565b611197611665565b83600581511115156111a857600080fd5b84426002826040518082805190602001908083835b6020831015156111e257805182526020820191506020810190506020830392506111bd565b6001836020036101000a03801982511681845116808217855250505050505090500191505090815260200160405180910390206001015410151561122557600080fd5b670de0b6b3a7640000341015151561123c57600080fd5b6060604051908101604052803373ffffffffffffffffffffffffffffffffffffffff168152602001867bffffffffffffffffffffffffffffffffffffffffffffffffffffffff191681526020016301e1338042018152509350836002876040518082805190602001908083835b6020831015156112ce57805182526020820191506020810190506020830392506112a9565b6001836020036101000a038019825116818451168082178552505050505050905001915050908152602001604051809103902060008201518160000160006101000a81548173ffffffffffffffffffffffffffffffffffffffff021916908373ffffffffffffffffffffffffffffffffffffffff16021790555060208201518160000160146101000a81548163ffffffff02191690837c01000000000000000000000000000000000000000000000000000000009004021790555060408201518160010155905050606060405190810160405280670de0b6b3a764000081526020014281526020016301e1338042018152509250600160003373ffffffffffffffffffffffffffffffffffffffff1673ffffffffffffffffffffffffffffffffffffffff16815260200190815260200160002080548060010182816114139190611687565b916000526020600020906003020160008590919091506000820151816000015560208201518160010155604082015181600201555050503373ffffffffffffffffffffffffffffffffffffffff16866040518082805190602001908083835b6020831015156114975780518252602082019150602081019050602083039250611472565b6001836020036101000a0380198251168184511680821785525050505050509050019150506040518091039020427fb5e8643fcedd99f4ab9f11ba853edcf8f9b9c2e376420417dfbf48ededb1be5a60405160405180910390a4505050505050565b6000809054906101000a900473ffffffffffffffffffffffffffffffffffffffff1673ffffffffffffffffffffffffffffffffffffffff163373ffffffffffffffffffffffffffffffffffffffff1614151561155457600080fd5b806000806101000a81548173ffffffffffffffffffffffffffffffffffffffff021916908373ffffffffffffffffffffffffffffffffffffffff1602179055508073ffffffffffffffffffffffffffffffffffffffff163373ffffffffffffffffffffffffffffffffffffffff167fc6016f7f1dfbfa136ba6e93f34ff92b95d5b9d4dcb571002078f50f1dad51e1360405160405180910390a350565b6000809054906101000a900473ffffffffffffffffffffffffffffffffffffffff1673ffffffffffffffffffffffffffffffffffffffff163373ffffffffffffffffffffffffffffffffffffffff1614151561164c57600080fd5b8073ffffffffffffffffffffffffffffffffffffffff16ff5b6060604051908101604052806000815260200160008152602001600081525090565b8154818355818115116116b4576003028160030283600052602060002091820191016116b39190611724565b5b505050565b602060405190810160405280600081525090565b606060405190810160405280600073ffffffffffffffffffffffffffffffffffffffff16815260200160007bffffffffffffffffffffffffffffffffffffffffffffffffffffffff19168152602001600081525090565b61175891905b8082111561175457600080820160009055600182016000905560028201600090555060030161172a565b5090565b905600a165627a7a72305820d20427cd0243aabe985f4cbeace37fc990be4d0f06774a17a23cbe4f696977300029",
  "source": "pragma solidity ^0.4.18;\n\nimport './common/Ownable.sol';\nimport './common/Destructible.sol';\nimport './libs/SafeMath.sol';\nimport './interfaces/DDNS.sol';\n\ncontract DDNSService is Destructible, DDNS {\n\n    using SafeMath for uint256;\n\n    struct DomainDetails {\n        address owner;\n        bytes4 ip;\n        uint expires;\n    }\n\n    uint constant private DOMAIN_NAME_COST = 1 ether;\n    uint constant private DOMAIN_EXPIRATION_DATE = 1 years;\n\n    bytes1 public constant BYTES_DEFAULT_VALUE = bytes1(0x00);\n    uint8 public constant DOMAIN_NAME_MIN_LENGTH = 5;\n    uint8 public constant IP_ADDRESS_MIN_LENGTH = 6;\n    uint8 public constant TOP_LEVEL_DOMAIN_MIN_LENGTH = 1;\n    uint8 public constant PRICE_INCREASE_BOUND_INDEX = 9;\n    \n    mapping (bytes => DomainDetails) private domainNames;\n\n    modifier isAvailable(bytes domain) {\n        require(domainNames[domain].expires < block.timestamp);\n        _;\n    }\n\n    modifier collectDomainNamePayment() {\n        require(msg.value >= DOMAIN_NAME_COST);\n        _;\n    }\n\n    modifier isDomainOwner(bytes domain) {\n        require(domainNames[domain].owner == msg.sender);\n        _;\n    }\n\n    modifier isDomainNameLengthAllowed(bytes domain) {\n        require(domain.length > 5);\n        _;\n    }\n\n    /**\n     *  EVENTS\n     */\n    event DomainNameRegistered(uint indexed timestamp, bytes indexed domainName, address indexed owner);\n    event DomainNameExtended(uint indexed timestamp, bytes indexed domainName, address indexed owner); \n    event DomainNameEdited(uint indexed timestamp, bytes indexed domainName, address indexed owner); \n    event DomainNameTransferred(uint indexed timestamp, bytes indexed domainName, address indexed owner, address newOwner); \n    event PurchaseChangeReturned(uint indexed timestamp, address indexed _owner, uint indexed amount); \n\n\n    function DDNSService() public {\n        \n    }\n    \n    /*\n     * @dev - function to regiter domain name\n     * @param domain - domain name to be registered\n     * @param ip - the ip of the host\n     */\n    function register(bytes domain, bytes4 ip) public payable isDomainNameLengthAllowed(domain) isAvailable(domain) collectDomainNamePayment {\n        DomainDetails memory newDomain = DomainDetails({owner: msg.sender, ip: ip, expires: block.timestamp + DOMAIN_EXPIRATION_DATE});\n        domainNames[domain] = newDomain;\n        Receipt memory newReceipt = Receipt({amountPaidWei: DOMAIN_NAME_COST, timestamp: block.timestamp, expires: block.timestamp + DOMAIN_EXPIRATION_DATE});\n        receipts[msg.sender].push(newReceipt);\n        DomainNameRegistered(block.timestamp, domain, msg.sender);\n    }\n\n    /*\n     * @dev - function to extend domain expiration date\n     * @param domain - domain name to be registered\n     * @param ip - the ip of the host\n     */\n    function extendExpirationDate(bytes domain) public payable isDomainOwner(domain) collectDomainNamePayment {\n        domainNames[domain].expires += 1 years;\n        Receipt memory newReceipt = Receipt({amountPaidWei: DOMAIN_NAME_COST, timestamp: block.timestamp, expires: block.timestamp + DOMAIN_EXPIRATION_DATE});\n        receipts[msg.sender].push(newReceipt);\n        DomainNameExtended(block.timestamp, domain, msg.sender);\n    }\n    \n    /*\n     * @dev - function to edit domain name\n     * @param domain - the domain name to be editted\n     * @param newIp - the new ip for the domain\n     */\n    function edit(bytes domain, bytes4 newIp) public isDomainOwner(domain) {\n        domainNames[domain].ip = newIp;\n        DomainNameEdited(block.timestamp, domain, msg.sender);\n    }\n    \n    /*\n     * @dev -\n     * @param \n     * @return\n     */\n    function transferDomain(bytes domain, address newOwner) public isDomainOwner(domain) {\n        domainNames[domain].owner = newOwner;\n        DomainNameTransferred(block.timestamp, domain, msg.sender, newOwner);\n    }\n    \n    /*\n     * @dev -\n     * @param \n     * @return\n     */\n    function getIP(bytes domain) public view returns (bytes4) {\n        return domainNames[domain].ip;\n    }\n    \n    /*\n     * @dev -\n     * @param \n     * @return\n     */\n    function getPrice(bytes domain) public view returns (uint) {\n        \n    }\n    \n    /*\n     * @dev - Get receipts \n     * @param \n     * @return\n     */\n    function getReceiptList() public view returns (Receipt[]) {\n        return receipts[msg.sender];\n    }\n\n    /*\n     * @dev - Get receipts \n     * @param \n     * @return\n     */\n    function withdraw() public onlyOwner {\n        owner.transfer(address(this).balance);\n    }\n}",
  "sourcePath": "/Users/milenradkov/git/softuni/solidity-smart-contracts-2018/decentralized-dns/smart-contract/contracts/DDNSService.sol",
  "compiler": {
    "name": "solc",
    "version": "0.4.19+commit.c4cbbb05.Emscripten.clang"
  },
  "schemaVersion": "2.0.0",
  "updatedAt": "2018-03-29T08:13:28.564Z"
}