{
  "contractName": "DDNSService",
  "abi": [
    {
      "constant": true,
      "inputs": [
        {
          "name": "",
          "type": "address"
        },
        {
          "name": "",
          "type": "uint256"
        }
      ],
      "name": "paymentReceipts",
      "outputs": [
        {
          "name": "",
          "type": "bytes32"
        }
      ],
      "payable": false,
      "stateMutability": "view",
      "type": "function"
    },
    {
      "constant": true,
      "inputs": [],
      "name": "DOMAIN_NAME_COST_SHORT_ADDITION",
      "outputs": [
        {
          "name": "",
          "type": "uint256"
        }
      ],
      "payable": false,
      "stateMutability": "view",
      "type": "function"
    },
    {
      "constant": true,
      "inputs": [],
      "name": "DOMAIN_NAME_COST",
      "outputs": [
        {
          "name": "",
          "type": "uint256"
        }
      ],
      "payable": false,
      "stateMutability": "view",
      "type": "function"
    },
    {
      "constant": true,
      "inputs": [
        {
          "name": "",
          "type": "bytes32"
        }
      ],
      "name": "domainNames",
      "outputs": [
        {
          "name": "name",
          "type": "bytes"
        },
        {
          "name": "topLevel",
          "type": "bytes12"
        },
        {
          "name": "owner",
          "type": "address"
        },
        {
          "name": "ip",
          "type": "bytes15"
        },
        {
          "name": "expires",
          "type": "uint256"
        }
      ],
      "payable": false,
      "stateMutability": "view",
      "type": "function"
    },
    {
      "constant": true,
      "inputs": [],
      "name": "DOMAIN_NAME_EXPENSIVE_LENGTH",
      "outputs": [
        {
          "name": "",
          "type": "uint8"
        }
      ],
      "payable": false,
      "stateMutability": "view",
      "type": "function"
    },
    {
      "constant": true,
      "inputs": [],
      "name": "DOMAIN_NAME_MIN_LENGTH",
      "outputs": [
        {
          "name": "",
          "type": "uint8"
        }
      ],
      "payable": false,
      "stateMutability": "view",
      "type": "function"
    },
    {
      "constant": true,
      "inputs": [],
      "name": "DOMAIN_EXPIRATION_DATE",
      "outputs": [
        {
          "name": "",
          "type": "uint256"
        }
      ],
      "payable": false,
      "stateMutability": "view",
      "type": "function"
    },
    {
      "constant": false,
      "inputs": [],
      "name": "destroy",
      "outputs": [],
      "payable": false,
      "stateMutability": "nonpayable",
      "type": "function"
    },
    {
      "constant": true,
      "inputs": [],
      "name": "owner",
      "outputs": [
        {
          "name": "",
          "type": "address"
        }
      ],
      "payable": false,
      "stateMutability": "view",
      "type": "function"
    },
    {
      "constant": true,
      "inputs": [
        {
          "name": "",
          "type": "bytes32"
        }
      ],
      "name": "receiptDetails",
      "outputs": [
        {
          "name": "amountPaidWei",
          "type": "uint256"
        },
        {
          "name": "timestamp",
          "type": "uint256"
        },
        {
          "name": "expires",
          "type": "uint256"
        }
      ],
      "payable": false,
      "stateMutability": "view",
      "type": "function"
    },
    {
      "constant": true,
      "inputs": [],
      "name": "TOP_LEVEL_DOMAIN_MIN_LENGTH",
      "outputs": [
        {
          "name": "",
          "type": "uint8"
        }
      ],
      "payable": false,
      "stateMutability": "view",
      "type": "function"
    },
    {
      "constant": true,
      "inputs": [],
      "name": "BYTES_DEFAULT_VALUE",
      "outputs": [
        {
          "name": "",
          "type": "bytes1"
        }
      ],
      "payable": false,
      "stateMutability": "view",
      "type": "function"
    },
    {
      "constant": false,
      "inputs": [
        {
          "name": "_newOwner",
          "type": "address"
        }
      ],
      "name": "transferOwnership",
      "outputs": [],
      "payable": false,
      "stateMutability": "nonpayable",
      "type": "function"
    },
    {
      "constant": false,
      "inputs": [
        {
          "name": "_recipient",
          "type": "address"
        }
      ],
      "name": "destroyAndSend",
      "outputs": [],
      "payable": false,
      "stateMutability": "nonpayable",
      "type": "function"
    },
    {
      "inputs": [],
      "payable": false,
      "stateMutability": "nonpayable",
      "type": "constructor"
    },
    {
      "anonymous": false,
      "inputs": [
        {
          "indexed": true,
          "name": "timestamp",
          "type": "uint256"
        },
        {
          "indexed": false,
          "name": "domainName",
          "type": "bytes"
        },
        {
          "indexed": false,
          "name": "topLevel",
          "type": "bytes12"
        }
      ],
      "name": "LogDomainNameRegistered",
      "type": "event"
    },
    {
      "anonymous": false,
      "inputs": [
        {
          "indexed": true,
          "name": "timestamp",
          "type": "uint256"
        },
        {
          "indexed": false,
          "name": "domainName",
          "type": "bytes"
        },
        {
          "indexed": false,
          "name": "topLevel",
          "type": "bytes12"
        },
        {
          "indexed": true,
          "name": "owner",
          "type": "address"
        }
      ],
      "name": "LogDomainNameRenewed",
      "type": "event"
    },
    {
      "anonymous": false,
      "inputs": [
        {
          "indexed": true,
          "name": "timestamp",
          "type": "uint256"
        },
        {
          "indexed": false,
          "name": "domainName",
          "type": "bytes"
        },
        {
          "indexed": false,
          "name": "topLevel",
          "type": "bytes12"
        },
        {
          "indexed": false,
          "name": "newIp",
          "type": "bytes15"
        }
      ],
      "name": "LogDomainNameEdited",
      "type": "event"
    },
    {
      "anonymous": false,
      "inputs": [
        {
          "indexed": true,
          "name": "timestamp",
          "type": "uint256"
        },
        {
          "indexed": false,
          "name": "domainName",
          "type": "bytes"
        },
        {
          "indexed": false,
          "name": "topLevel",
          "type": "bytes12"
        },
        {
          "indexed": true,
          "name": "owner",
          "type": "address"
        },
        {
          "indexed": false,
          "name": "newOwner",
          "type": "address"
        }
      ],
      "name": "LogDomainNameTransferred",
      "type": "event"
    },
    {
      "anonymous": false,
      "inputs": [
        {
          "indexed": true,
          "name": "timestamp",
          "type": "uint256"
        },
        {
          "indexed": true,
          "name": "_owner",
          "type": "address"
        },
        {
          "indexed": false,
          "name": "amount",
          "type": "uint256"
        }
      ],
      "name": "LogPurchaseChangeReturned",
      "type": "event"
    },
    {
      "anonymous": false,
      "inputs": [
        {
          "indexed": true,
          "name": "timestamp",
          "type": "uint256"
        },
        {
          "indexed": false,
          "name": "domainName",
          "type": "bytes"
        },
        {
          "indexed": false,
          "name": "amountInWei",
          "type": "uint256"
        },
        {
          "indexed": false,
          "name": "expires",
          "type": "uint256"
        }
      ],
      "name": "LogReceipt",
      "type": "event"
    },
    {
      "anonymous": false,
      "inputs": [
        {
          "indexed": true,
          "name": "_currentOwner",
          "type": "address"
        },
        {
          "indexed": true,
          "name": "_newOwner",
          "type": "address"
        }
      ],
      "name": "LogOwnershipTransfered",
      "type": "event"
    },
    {
      "constant": false,
      "inputs": [
        {
          "name": "domain",
          "type": "bytes"
        },
        {
          "name": "topLevel",
          "type": "bytes12"
        },
        {
          "name": "ip",
          "type": "bytes15"
        }
      ],
      "name": "register",
      "outputs": [],
      "payable": true,
      "stateMutability": "payable",
      "type": "function"
    },
    {
      "constant": false,
      "inputs": [
        {
          "name": "domain",
          "type": "bytes"
        },
        {
          "name": "topLevel",
          "type": "bytes12"
        }
      ],
      "name": "renewDomainName",
      "outputs": [],
      "payable": true,
      "stateMutability": "payable",
      "type": "function"
    },
    {
      "constant": false,
      "inputs": [
        {
          "name": "domain",
          "type": "bytes"
        },
        {
          "name": "topLevel",
          "type": "bytes12"
        },
        {
          "name": "newIp",
          "type": "bytes15"
        }
      ],
      "name": "edit",
      "outputs": [],
      "payable": false,
      "stateMutability": "nonpayable",
      "type": "function"
    },
    {
      "constant": false,
      "inputs": [
        {
          "name": "domain",
          "type": "bytes"
        },
        {
          "name": "topLevel",
          "type": "bytes12"
        },
        {
          "name": "newOwner",
          "type": "address"
        }
      ],
      "name": "transferDomain",
      "outputs": [],
      "payable": false,
      "stateMutability": "nonpayable",
      "type": "function"
    },
    {
      "constant": true,
      "inputs": [
        {
          "name": "domain",
          "type": "bytes"
        },
        {
          "name": "topLevel",
          "type": "bytes12"
        }
      ],
      "name": "getIP",
      "outputs": [
        {
          "name": "",
          "type": "bytes15"
        }
      ],
      "payable": false,
      "stateMutability": "view",
      "type": "function"
    },
    {
      "constant": true,
      "inputs": [
        {
          "name": "domain",
          "type": "bytes"
        }
      ],
      "name": "getPrice",
      "outputs": [
        {
          "name": "",
          "type": "uint256"
        }
      ],
      "payable": false,
      "stateMutability": "pure",
      "type": "function"
    },
    {
      "constant": true,
      "inputs": [],
      "name": "getReceiptList",
      "outputs": [
        {
          "name": "",
          "type": "bytes32[]"
        }
      ],
      "payable": false,
      "stateMutability": "view",
      "type": "function"
    },
    {
      "constant": true,
      "inputs": [
        {
          "name": "receiptKey",
          "type": "bytes32"
        }
      ],
      "name": "getReceipt",
      "outputs": [
        {
          "name": "",
          "type": "uint256"
        },
        {
          "name": "",
          "type": "uint256"
        },
        {
          "name": "",
          "type": "uint256"
        }
      ],
      "payable": false,
      "stateMutability": "view",
      "type": "function"
    },
    {
      "constant": true,
      "inputs": [
        {
          "name": "domain",
          "type": "bytes"
        },
        {
          "name": "topLevel",
          "type": "bytes12"
        }
      ],
      "name": "getDomainHash",
      "outputs": [
        {
          "name": "",
          "type": "bytes32"
        }
      ],
      "payable": false,
      "stateMutability": "pure",
      "type": "function"
    },
    {
      "constant": true,
      "inputs": [
        {
          "name": "domain",
          "type": "bytes"
        },
        {
          "name": "topLevel",
          "type": "bytes12"
        }
      ],
      "name": "getReceiptKey",
      "outputs": [
        {
          "name": "",
          "type": "bytes32"
        }
      ],
      "payable": false,
      "stateMutability": "view",
      "type": "function"
    },
    {
      "constant": false,
      "inputs": [],
      "name": "withdraw",
      "outputs": [],
      "payable": false,
      "stateMutability": "nonpayable",
      "type": "function"
    }
  ],
  "bytecode": "0x6060604052341561000f57600080fd5b336000806101000a81548173ffffffffffffffffffffffffffffffffffffffff021916908373ffffffffffffffffffffffffffffffffffffffff160217905550611fe78061005e6000396000f300606060405260043610610149576000357c0100000000000000000000000000000000000000000000000000000000900463ffffffff16806304f9c16d1461014e578063080f81ba146101ac578063148d9417146101d55780631e932159146101fe578063316d2d781461028d5780633ccfd60b146103e85780634e03255a146103fd5780634e6fcc1414610496578063666916f8146104c55780636ac98cdf146104f45780636b4dd1581461058d57806373ff42a2146105fe57806378129e19146106275780637fa594d3146106c157806383197ef01461077a5780638da5cb5b1461078f578063a79eebbc146107e4578063b4d9e77b1461084e578063b7a1ff8f146108c0578063d678ddf514610909578063d8d5773314610938578063f2fde38b146109a5578063f30b70e3146109de578063f5074f4114610a7a578063fcecbb6114610ab3575b600080fd5b341561015957600080fd5b61018e600480803573ffffffffffffffffffffffffffffffffffffffff16906020019091908035906020019091905050610afc565b60405180826000191660001916815260200191505060405180910390f35b34156101b757600080fd5b6101bf610b2d565b6040518082815260200191505060405180910390f35b34156101e057600080fd5b6101e8610b39565b6040518082815260200191505060405180910390f35b61028b600480803590602001908201803590602001908080601f0160208091040260200160405190810160405280939291908181526020018383808284378201915050505050509190803573ffffffffffffffffffffffffffffffffffffffff191690602001909190803570ffffffffffffffffffffffffffffffffff1916906020019091905050610b45565b005b341561029857600080fd5b6102b2600480803560001916906020019091905050610fea565b60405180806020018673ffffffffffffffffffffffffffffffffffffffff191673ffffffffffffffffffffffffffffffffffffffff191681526020018573ffffffffffffffffffffffffffffffffffffffff1673ffffffffffffffffffffffffffffffffffffffff1681526020018470ffffffffffffffffffffffffffffffffff191670ffffffffffffffffffffffffffffffffff191681526020018381526020018281038252878181546001816001161561010002031660029004815260200191508054600181600116156101000203166002900480156103d55780601f106103aa576101008083540402835291602001916103d5565b820191906000526020600020905b8154815290600101906020018083116103b857829003601f168201915b5050965050505050505060405180910390f35b34156103f357600080fd5b6103fb61107e565b005b341561040857600080fd5b610478600480803590602001908201803590602001908080601f0160208091040260200160405190810160405280939291908181526020018383808284378201915050505050509190803573ffffffffffffffffffffffffffffffffffffffff1916906020019091905050611153565b60405180826000191660001916815260200191505060405180910390f35b34156104a157600080fd5b6104a9611241565b604051808260ff1660ff16815260200191505060405180910390f35b34156104d057600080fd5b6104d8611246565b604051808260ff1660ff16815260200191505060405180910390f35b34156104ff57600080fd5b61056f600480803590602001908201803590602001908080601f0160208091040260200160405190810160405280939291908181526020018383808284378201915050505050509190803573ffffffffffffffffffffffffffffffffffffffff191690602001909190505061124b565b60405180826000191660001916815260200191505060405180910390f35b341561059857600080fd5b6105e8600480803590602001908201803590602001908080601f016020809104026020016040519081016040528093929190818152602001838380828437820191505050505050919050506112ee565b6040518082815260200191505060405180910390f35b341561060957600080fd5b610611611320565b6040518082815260200191505060405180910390f35b341561063257600080fd5b6106bf600480803590602001908201803590602001908080601f0160208091040260200160405190810160405280939291908181526020018383808284378201915050505050509190803573ffffffffffffffffffffffffffffffffffffffff191690602001909190803570ffffffffffffffffffffffffffffffffff1916906020019091905050611328565b005b34156106cc57600080fd5b61073c600480803590602001908201803590602001908080601f0160208091040260200160405190810160405280939291908181526020018383808284378201915050505050509190803573ffffffffffffffffffffffffffffffffffffffff1916906020019091905050611521565b604051808270ffffffffffffffffffffffffffffffffff191670ffffffffffffffffffffffffffffffffff1916815260200191505060405180910390f35b341561078557600080fd5b61078d611576565b005b341561079a57600080fd5b6107a261160b565b604051808273ffffffffffffffffffffffffffffffffffffffff1673ffffffffffffffffffffffffffffffffffffffff16815260200191505060405180910390f35b34156107ef57600080fd5b6107f7611630565b6040518080602001828103825283818151815260200191508051906020019060200280838360005b8381101561083a57808201518184015260208101905061081f565b505050509050019250505060405180910390f35b6108be600480803590602001908201803590602001908080601f0160208091040260200160405190810160405280939291908181526020018383808284378201915050505050509190803573ffffffffffffffffffffffffffffffffffffffff19169060200190919050506116cf565b005b34156108cb57600080fd5b6108e5600480803560001916906020019091905050611993565b60405180848152602001838152602001828152602001935050505060405180910390f35b341561091457600080fd5b61091c6119bd565b604051808260ff1660ff16815260200191505060405180910390f35b341561094357600080fd5b61094b6119c2565b60405180827effffffffffffffffffffffffffffffffffffffffffffffffffffffffffffff19167effffffffffffffffffffffffffffffffffffffffffffffffffffffffffffff1916815260200191505060405180910390f35b34156109b057600080fd5b6109dc600480803573ffffffffffffffffffffffffffffffffffffffff169060200190919050506119e9565b005b34156109e957600080fd5b610a78600480803590602001908201803590602001908080601f0160208091040260200160405190810160405280939291908181526020018383808284378201915050505050509190803573ffffffffffffffffffffffffffffffffffffffff191690602001909190803573ffffffffffffffffffffffffffffffffffffffff16906020019091905050611ae1565b005b3415610a8557600080fd5b610ab1600480803573ffffffffffffffffffffffffffffffffffffffff16906020019091905050611d21565b005b3415610abe57600080fd5b610ad8600480803560001916906020019091905050611d95565b60405180848152602001838152602001828152602001935050505060405180910390f35b600260205281600052604060002081815481101515610b1757fe5b9060005260206000209001600091509150505481565b670de0b6b3a764000081565b670de0b6b3a764000081565b6000610b4f611e04565b610b57611e7b565b600086600560ff16815110151515610b6e57600080fd5b86600160ff16600c60ff1610151515610b8657600080fd5b88886000610b94838361124b565b90504260016000836000191660001916815260200190815260200160002060030154101515610bc257600080fd5b8b6000610bce826112ee565b9050803410151515610bdf57600080fd5b610be98e8e61124b565b9a5060a0604051908101604052808f81526020018e73ffffffffffffffffffffffffffffffffffffffff191681526020013373ffffffffffffffffffffffffffffffffffffffff1681526020018d70ffffffffffffffffffffffffffffffffff191681526020016301e133804201815250995089600160008d600019166000191681526020019081526020016000206000820151816000019080519060200190610c94929190611e9d565b5060208201518160010160006101000a8154816bffffffffffffffffffffffff02191690837401000000000000000000000000000000000000000090040217905550604082015181600101600c6101000a81548173ffffffffffffffffffffffffffffffffffffffff021916908373ffffffffffffffffffffffffffffffffffffffff16021790555060608201518160020160006101000a8154816effffffffffffffffffffffffffffff0219169083710100000000000000000000000000000000009004021790555060808201518160030155905050606060405190810160405280670de0b6b3a764000081526020014281526020016301e1338042018152509850610da18e8e611153565b9750600260003373ffffffffffffffffffffffffffffffffffffffff1673ffffffffffffffffffffffffffffffffffffffff1681526020019081526020016000208054806001018281610df49190611f1d565b916000526020600020900160008a9091909150906000191690555088600360008a60001916600019168152602001908152602001600020600082015181600001556020820151816001015560408201518160020155905050427f690691adf5dcf1256b88c5de131a8bbbf6cfa0dc88d43b4b8d52e326f0021b868f670de0b6b3a76400006301e1338042016040518080602001848152602001838152602001828103825285818151815260200191508051906020019080838360005b83811015610ecb578082015181840152602081019050610eb0565b50505050905090810190601f168015610ef85780820380516001836020036101000a031916815260200191505b5094505050505060405180910390a2427f866386c63f5535a3e914902c8867674abc47d0cf171c07e538ec40525fe8033b8f8f60405180806020018373ffffffffffffffffffffffffffffffffffffffff191673ffffffffffffffffffffffffffffffffffffffff19168152602001828103825284818151815260200191508051906020019080838360005b83811015610f9f578082015181840152602081019050610f84565b50505050905090810190601f168015610fcc5780820380516001836020036101000a031916815260200191505b50935050505060405180910390a25050505050505050505050505050565b600160205280600052604060002060009150905080600001908060010160009054906101000a900474010000000000000000000000000000000000000000029080600101600c9054906101000a900473ffffffffffffffffffffffffffffffffffffffff16908060020160009054906101000a90047101000000000000000000000000000000000002908060030154905085565b6000809054906101000a900473ffffffffffffffffffffffffffffffffffffffff1673ffffffffffffffffffffffffffffffffffffffff163373ffffffffffffffffffffffffffffffffffffffff161415156110d957600080fd5b6000809054906101000a900473ffffffffffffffffffffffffffffffffffffffff1673ffffffffffffffffffffffffffffffffffffffff166108fc3073ffffffffffffffffffffffffffffffffffffffff16319081150290604051600060405180830381858888f19350505050151561115157600080fd5b565b6000828233426040518085805190602001908083835b60208310151561118e5780518252602082019150602081019050602083039250611169565b6001836020036101000a0380198251168184511680821785525050505050509050018473ffffffffffffffffffffffffffffffffffffffff191673ffffffffffffffffffffffffffffffffffffffff19168152600c018373ffffffffffffffffffffffffffffffffffffffff1673ffffffffffffffffffffffffffffffffffffffff166c010000000000000000000000000281526014018281526020019450505050506040518091039020905092915050565b600881565b600581565b600082826040518083805190602001908083835b602083101515611284578051825260208201915060208101905060208303925061125f565b6001836020036101000a0380198251168184511680821785525050505050509050018273ffffffffffffffffffffffffffffffffffffffff191673ffffffffffffffffffffffffffffffffffffffff19168152600c01925050506040518091039020905092915050565b6000600860ff168251101561130f57670de0b6b3a76400008001905061131b565b670de0b6b3a764000090505b919050565b6301e1338081565b600083836000611338838361124b565b90503373ffffffffffffffffffffffffffffffffffffffff16600160008360001916600019168152602001908152602001600020600101600c9054906101000a900473ffffffffffffffffffffffffffffffffffffffff1673ffffffffffffffffffffffffffffffffffffffff161415156113b257600080fd5b6113bc878761124b565b93508460016000866000191660001916815260200190815260200160002060020160006101000a8154816effffffffffffffffffffffffffffff02191690837101000000000000000000000000000000000090040217905550427f26bdc0bb2172e6ed279fb9f78c96d130ce52f594c8cfedcc0aea541da98c598288888860405180806020018473ffffffffffffffffffffffffffffffffffffffff191673ffffffffffffffffffffffffffffffffffffffff191681526020018370ffffffffffffffffffffffffffffffffff191670ffffffffffffffffffffffffffffffffff19168152602001828103825285818151815260200191508051906020019080838360005b838110156114dc5780820151818401526020810190506114c1565b50505050905090810190601f1680156115095780820380516001836020036101000a031916815260200191505b5094505050505060405180910390a250505050505050565b60008061152e848461124b565b905060016000826000191660001916815260200190815260200160002060020160009054906101000a9004710100000000000000000000000000000000000291505092915050565b6000809054906101000a900473ffffffffffffffffffffffffffffffffffffffff1673ffffffffffffffffffffffffffffffffffffffff163373ffffffffffffffffffffffffffffffffffffffff161415156115d157600080fd5b6000809054906101000a900473ffffffffffffffffffffffffffffffffffffffff1673ffffffffffffffffffffffffffffffffffffffff16ff5b6000809054906101000a900473ffffffffffffffffffffffffffffffffffffffff1681565b611638611f49565b600260003373ffffffffffffffffffffffffffffffffffffffff1673ffffffffffffffffffffffffffffffffffffffff1681526020019081526020016000208054806020026020016040519081016040528092919081815260200182805480156116c557602002820191906000526020600020905b815460001916815260200190600101908083116116ad575b5050505050905090565b60006116d9611e7b565b6000848460006116e9838361124b565b90503373ffffffffffffffffffffffffffffffffffffffff16600160008360001916600019168152602001908152602001600020600101600c9054906101000a900473ffffffffffffffffffffffffffffffffffffffff1673ffffffffffffffffffffffffffffffffffffffff1614151561176357600080fd5b87600061176f826112ee565b905080341015151561178057600080fd5b61178a8a8a61124b565b97506301e13380600160008a6000191660001916815260200190815260200160002060030160008282540192505081905550606060405190810160405280670de0b6b3a764000081526020014281526020016301e13380420181525096506117f28a8a611153565b9550600260003373ffffffffffffffffffffffffffffffffffffffff1673ffffffffffffffffffffffffffffffffffffffff16815260200190815260200160002080548060010182816118459190611f1d565b916000526020600020900160008890919091509060001916905550866003600088600019166000191681526020019081526020016000206000820151816000015560208201518160010155604082015181600201559050503373ffffffffffffffffffffffffffffffffffffffff16427f4164715c0e5c59941e6e13d4801ec49371896676546912145e8325a848d7f4f58c8c60405180806020018373ffffffffffffffffffffffffffffffffffffffff191673ffffffffffffffffffffffffffffffffffffffff19168152602001828103825284818151815260200191508051906020019080838360005b8381101561194c578082015181840152602081019050611931565b50505050905090810190601f1680156119795780820380516001836020036101000a031916815260200191505b50935050505060405180910390a350505050505050505050565b60036020528060005260406000206000915090508060000154908060010154908060020154905083565b600181565b60007f01000000000000000000000000000000000000000000000000000000000000000281565b6000809054906101000a900473ffffffffffffffffffffffffffffffffffffffff1673ffffffffffffffffffffffffffffffffffffffff163373ffffffffffffffffffffffffffffffffffffffff16141515611a4457600080fd5b806000806101000a81548173ffffffffffffffffffffffffffffffffffffffff021916908373ffffffffffffffffffffffffffffffffffffffff1602179055508073ffffffffffffffffffffffffffffffffffffffff163373ffffffffffffffffffffffffffffffffffffffff167fc6016f7f1dfbfa136ba6e93f34ff92b95d5b9d4dcb571002078f50f1dad51e1360405160405180910390a350565b600083836000611af1838361124b565b90503373ffffffffffffffffffffffffffffffffffffffff16600160008360001916600019168152602001908152602001600020600101600c9054906101000a900473ffffffffffffffffffffffffffffffffffffffff1673ffffffffffffffffffffffffffffffffffffffff16141515611b6b57600080fd5b60008573ffffffffffffffffffffffffffffffffffffffff1614151515611b9157600080fd5b611b9b878761124b565b935084600160008660001916600019168152602001908152602001600020600101600c6101000a81548173ffffffffffffffffffffffffffffffffffffffff021916908373ffffffffffffffffffffffffffffffffffffffff1602179055503373ffffffffffffffffffffffffffffffffffffffff16427f4ae77a0d854d432937d6a090209418c3673044142d83c16c9745731194b8527089898960405180806020018473ffffffffffffffffffffffffffffffffffffffff191673ffffffffffffffffffffffffffffffffffffffff191681526020018373ffffffffffffffffffffffffffffffffffffffff1673ffffffffffffffffffffffffffffffffffffffff168152602001828103825285818151815260200191508051906020019080838360005b83811015611cdc578082015181840152602081019050611cc1565b50505050905090810190601f168015611d095780820380516001836020036101000a031916815260200191505b5094505050505060405180910390a350505050505050565b6000809054906101000a900473ffffffffffffffffffffffffffffffffffffffff1673ffffffffffffffffffffffffffffffffffffffff163373ffffffffffffffffffffffffffffffffffffffff16141515611d7c57600080fd5b8073ffffffffffffffffffffffffffffffffffffffff16ff5b60008060006003600085600019166000191681526020019081526020016000206000015460036000866000191660001916815260200190815260200160002060010154600360008760001916600019168152602001908152602001600020600201549250925092509193909250565b60a060405190810160405280611e18611f5d565b8152602001600073ffffffffffffffffffffffffffffffffffffffff19168152602001600073ffffffffffffffffffffffffffffffffffffffff168152602001600070ffffffffffffffffffffffffffffffffff19168152602001600081525090565b6060604051908101604052806000815260200160008152602001600081525090565b828054600181600116156101000203166002900490600052602060002090601f016020900481019282601f10611ede57805160ff1916838001178555611f0c565b82800160010185558215611f0c579182015b82811115611f0b578251825591602001919060010190611ef0565b5b509050611f199190611f71565b5090565b815481835581811511611f4457818360005260206000209182019101611f439190611f96565b5b505050565b602060405190810160405280600081525090565b602060405190810160405280600081525090565b611f9391905b80821115611f8f576000816000905550600101611f77565b5090565b90565b611fb891905b80821115611fb4576000816000905550600101611f9c565b5090565b905600a165627a7a723058201da658ab8c7059d856afbfb004d0e572b0e1a72d4e5d3766c3ea76b0c775038b0029",
  "source": "pragma solidity ^0.4.18;\n\nimport './common/Ownable.sol';\nimport './common/Destructible.sol';\nimport './libs/SafeMath.sol';\n\ncontract DDNSService is Destructible {\n    /** USINGS */\n    using SafeMath for uint256;\n\n    /** STRUCTS */\n    struct DomainDetails {\n        bytes name;\n        bytes12 topLevel;\n        address owner;\n        bytes15 ip;\n        uint expires;\n    }\n\n    struct Receipt {\n        uint amountPaidWei;\n        uint timestamp;\n        uint expires;\n    }\n\n    /** CONSTANTS */\n    uint constant public DOMAIN_NAME_COST = 1 ether;\n    uint constant public DOMAIN_NAME_COST_SHORT_ADDITION = 1 ether;\n    uint constant public DOMAIN_EXPIRATION_DATE = 1 years;\n    uint8 constant public DOMAIN_NAME_MIN_LENGTH = 5;\n    uint8 constant public DOMAIN_NAME_EXPENSIVE_LENGTH = 8;\n    uint8 constant public TOP_LEVEL_DOMAIN_MIN_LENGTH = 1;\n    bytes1 constant public BYTES_DEFAULT_VALUE = bytes1(0x00);\n    \n    /** STATE VARIABLES */\n    mapping (bytes32 => DomainDetails) public domainNames;\n    mapping(address => bytes32[]) public paymentReceipts;\n    mapping(bytes32 => Receipt) public receiptDetails;\n\n    /** \n     * MODIFIERS\n     */\n    modifier isAvailable(bytes domain, bytes12 topLevel) {\n        bytes32 domainHash = getDomainHash(domain, topLevel);\n        require(domainNames[domainHash].expires < block.timestamp);\n        _;\n    }\n\n    modifier collectDomainNamePayment(bytes domain) {\n        uint domainPrice = getPrice(domain);\n        require(msg.value >= domainPrice);\n        _;\n    }\n\n    modifier isDomainOwner(bytes domain, bytes12 topLevel) {\n        bytes32 domainHash = getDomainHash(domain, topLevel);\n        require(domainNames[domainHash].owner == msg.sender);\n        _;\n    }\n\n    modifier isDomainNameLengthAllowed(bytes domain) {\n        require(domain.length >= DOMAIN_NAME_MIN_LENGTH);\n        _;\n    }\n\n    modifier isTopLevelLengthAllowed(bytes12 topLevel) {\n        require(topLevel.length >= TOP_LEVEL_DOMAIN_MIN_LENGTH);\n        _;\n    }\n\n    /**\n     *  EVENTS\n     */\n    event LogDomainNameRegistered(uint indexed timestamp, bytes domainName, bytes12 topLevel);\n    event LogDomainNameRenewed(uint indexed timestamp, bytes domainName, bytes12 topLevel, address indexed owner); \n    event LogDomainNameEdited(uint indexed timestamp, bytes domainName, bytes12 topLevel, bytes15 newIp); \n    event LogDomainNameTransferred(uint indexed timestamp, bytes domainName, bytes12 topLevel, address indexed owner, address newOwner); \n    event LogPurchaseChangeReturned(uint indexed timestamp, address indexed _owner, uint amount);\n    event LogReceipt(uint indexed timestamp, bytes domainName, uint amountInWei, uint expires);\n\n    /**\n     * @dev - Constructor of the contract\n     */\n    function DDNSService() public {\n        \n    }\n    \n    /*\n     * @dev - function to regiter domain name\n     * @param domain - domain name to be registered\n     * @param topLevel - domain top level\n     * @param ip - the ip of the host\n     */\n    function register(bytes domain, bytes12 topLevel, bytes15 ip) public payable isDomainNameLengthAllowed(domain) isTopLevelLengthAllowed(topLevel) isAvailable(domain, topLevel) collectDomainNamePayment(domain) {\n        bytes32 domainHash = getDomainHash(domain, topLevel);\n\n        DomainDetails memory newDomain = DomainDetails({name: domain, topLevel: topLevel, owner: msg.sender, ip: ip, expires: block.timestamp + DOMAIN_EXPIRATION_DATE});\n        domainNames[domainHash] = newDomain;\n        \n        Receipt memory newReceipt = Receipt({amountPaidWei: DOMAIN_NAME_COST, timestamp: block.timestamp, expires: block.timestamp + DOMAIN_EXPIRATION_DATE});\n        bytes32 receiptKey = getReceiptKey(domain, topLevel);\n        paymentReceipts[msg.sender].push(receiptKey);\n        receiptDetails[receiptKey] = newReceipt;\n        LogReceipt(block.timestamp, domain, DOMAIN_NAME_COST, block.timestamp + DOMAIN_EXPIRATION_DATE);\n    \n        LogDomainNameRegistered(block.timestamp, domain, topLevel);\n    }\n\n    /*\n     * @dev - function to extend domain expiration date\n     * @param domain - domain name to be registered\n     * @param topLevel - top level\n     */\n    function renewDomainName(bytes domain, bytes12 topLevel) public payable isDomainOwner(domain, topLevel) collectDomainNamePayment(domain) {\n        bytes32 domainHash = getDomainHash(domain, topLevel);\n        domainNames[domainHash].expires += 1 years;\n        Receipt memory newReceipt = Receipt({amountPaidWei: DOMAIN_NAME_COST, timestamp: block.timestamp, expires: block.timestamp + DOMAIN_EXPIRATION_DATE});\n        bytes32 receiptKey = getReceiptKey(domain, topLevel);\n        paymentReceipts[msg.sender].push(receiptKey);\n        receiptDetails[receiptKey] = newReceipt;\n\n        LogDomainNameRenewed(block.timestamp, domain, topLevel, msg.sender);\n    }\n    \n    /*\n     * @dev - function to edit domain name\n     * @param domain - the domain name to be editted\n     * @param topLevel\n     * @param newIp - the new ip for the domain\n     */\n    function edit(bytes domain, bytes12 topLevel, bytes15 newIp) public isDomainOwner(domain, topLevel) {\n        bytes32 domainHash = getDomainHash(domain, topLevel);        \n        domainNames[domainHash].ip = newIp;\n        LogDomainNameEdited(block.timestamp, domain, topLevel, newIp);\n    }\n    \n    /*\n     * @dev - Transfer domain ownership\n     * @param domain\n     * @param topLevel\n     * @param newOwner\n     */\n    function transferDomain(bytes domain, bytes12 topLevel, address newOwner) public isDomainOwner(domain, topLevel) {\n        require(newOwner != 0x00);\n        bytes32 domainHash = getDomainHash(domain, topLevel);\n        domainNames[domainHash].owner = newOwner;\n        LogDomainNameTransferred(block.timestamp, domain, topLevel, msg.sender, newOwner);\n    }\n    \n    /*\n     * @dev - Get ip of domain\n     * @param domain\n     * @param topLevel\n     */\n    function getIP(bytes domain, bytes12 topLevel) public view returns (bytes15) {\n        bytes32 domainHash = getDomainHash(domain, topLevel);\n        return domainNames[domainHash].ip;\n    }\n    \n    /*\n     * @dev - Get price of domain\n     * @param domain\n     */\n    function getPrice(bytes domain) public pure returns (uint) {\n        if (domain.length < DOMAIN_NAME_EXPENSIVE_LENGTH) {\n            return DOMAIN_NAME_COST + DOMAIN_NAME_COST_SHORT_ADDITION;\n        }\n\n        return DOMAIN_NAME_COST;\n    }\n    \n    /**\n     * @dev - Get receipts\n     */\n    function getReceiptList() public view returns (bytes32[]) {\n        return paymentReceipts[msg.sender];\n    }\n    \n    /*\n     * @dev - Get single receipt\n     * @param receiptKey\n     */\n    function getReceipt(bytes32 receiptKey) public view returns (uint, uint, uint) {\n        return (receiptDetails[receiptKey].amountPaidWei,\n                receiptDetails[receiptKey].timestamp,\n                receiptDetails[receiptKey].expires);\n    }\n\n    /*\n     * @dev - Get domain name + top level hash \n     * @param domain\n     * @param topLevel\n     * @return domainHash\n     */\n    function getDomainHash(bytes domain, bytes12 topLevel) public pure returns(bytes32) {\n        return keccak256(domain, topLevel);\n    } \n\n    /*\n     * @dev - Get recepit key\n     * @param domain\n     * @param topLevel\n     * @return receiptKey\n     */\n    function getReceiptKey(bytes domain, bytes12 topLevel) public view returns(bytes32) {\n        return keccak256(domain, topLevel, msg.sender, block.timestamp);\n    } \n\n    /**\n     * @dev - Withdraw function \n     */\n    function withdraw() public onlyOwner {\n        owner.transfer(address(this).balance);\n    }\n}",
  "sourcePath": "/Users/milenradkov/git/softuni/solidity-smart-contracts-2018/decentralized-dns/smart-contract/contracts/DDNSService.sol",
  "compiler": {
    "name": "solc",
    "version": "0.4.19+commit.c4cbbb05.Emscripten.clang"
  },
  "schemaVersion": "2.0.0",
  "updatedAt": "2018-04-01T08:05:05.130Z"
}