{
  "contractName": "DDNS",
  "abi": [
    {
      "constant": true,
      "inputs": [
        {
          "name": "",
          "type": "address"
        },
        {
          "name": "",
          "type": "uint256"
        }
      ],
      "name": "receipts",
      "outputs": [
        {
          "name": "amountPaidWei",
          "type": "uint256"
        },
        {
          "name": "timestamp",
          "type": "uint256"
        },
        {
          "name": "expires",
          "type": "uint256"
        }
      ],
      "payable": false,
      "stateMutability": "view",
      "type": "function"
    },
    {
      "constant": false,
      "inputs": [
        {
          "name": "domain",
          "type": "bytes"
        },
        {
          "name": "ip",
          "type": "bytes4"
        }
      ],
      "name": "register",
      "outputs": [],
      "payable": true,
      "stateMutability": "payable",
      "type": "function"
    },
    {
      "constant": false,
      "inputs": [
        {
          "name": "domain",
          "type": "bytes"
        },
        {
          "name": "newIp",
          "type": "bytes4"
        }
      ],
      "name": "edit",
      "outputs": [],
      "payable": false,
      "stateMutability": "nonpayable",
      "type": "function"
    },
    {
      "constant": false,
      "inputs": [
        {
          "name": "domain",
          "type": "bytes"
        },
        {
          "name": "newOwner",
          "type": "address"
        }
      ],
      "name": "transferDomain",
      "outputs": [],
      "payable": false,
      "stateMutability": "nonpayable",
      "type": "function"
    },
    {
      "constant": true,
      "inputs": [
        {
          "name": "domain",
          "type": "bytes"
        }
      ],
      "name": "getIP",
      "outputs": [
        {
          "name": "",
          "type": "bytes4"
        }
      ],
      "payable": false,
      "stateMutability": "view",
      "type": "function"
    },
    {
      "constant": true,
      "inputs": [
        {
          "name": "domain",
          "type": "bytes"
        }
      ],
      "name": "getPrice",
      "outputs": [
        {
          "name": "",
          "type": "uint256"
        }
      ],
      "payable": false,
      "stateMutability": "view",
      "type": "function"
    }
  ],
  "bytecode": "0x6060604052341561000f57600080fd5b6104088061001e6000396000f300606060405260043610610078576000357c0100000000000000000000000000000000000000000000000000000000900463ffffffff1680631673f0081461007d5780636b4dd158146101025780639df35ba714610173578063a08ad97d146101ef578063b21659f214610253578063efacd29414610302575b600080fd5b341561008857600080fd5b610100600480803590602001908201803590602001908080601f016020809104026020016040519081016040528093929190818152602001838380828437820191505050505050919080357bffffffffffffffffffffffffffffffffffffffffffffffffffffffff191690602001909190505061037c565b005b341561010d57600080fd5b61015d600480803590602001908201803590602001908080601f01602080910402602001604051908101604052809392919081815260200183838082843782019150505050505091905050610380565b6040518082815260200191505060405180910390f35b341561017e57600080fd5b6101ed600480803590602001908201803590602001908080601f0160208091040260200160405190810160405280939291908181526020018383808284378201915050505050509190803573ffffffffffffffffffffffffffffffffffffffff16906020019091905050610387565b005b34156101fa57600080fd5b61022f600480803573ffffffffffffffffffffffffffffffffffffffff1690602001909190803590602001909190505061038b565b60405180848152602001838152602001828152602001935050505060405180910390f35b341561025e57600080fd5b6102ae600480803590602001908201803590602001908080601f016020809104026020016040519081016040528093929190818152602001838380828437820191505050505050919050506103d1565b60405180827bffffffffffffffffffffffffffffffffffffffffffffffffffffffff19167bffffffffffffffffffffffffffffffffffffffffffffffffffffffff1916815260200191505060405180910390f35b61037a600480803590602001908201803590602001908080601f016020809104026020016040519081016040528093929190818152602001838380828437820191505050505050919080357bffffffffffffffffffffffffffffffffffffffffffffffffffffffff19169060200190919050506103d8565b005b5050565b6000919050565b5050565b6000602052816000526040600020818154811015156103a657fe5b9060005260206000209060030201600091509150508060000154908060010154908060020154905083565b6000919050565b50505600a165627a7a72305820caca0b93e7c2dd86cd7aa4439c8eeebe1fba77d646d916be0a48b23c3e817e760029",
  "source": "pragma solidity ^0.4.18;\n\ncontract DDNS {\n    struct Receipt{\n        uint amountPaidWei;\n        uint timestamp;\n        uint expires;\n    }\n    \n    //This will create an automatic getter with 2 arguments: address and index of receipt\n    mapping(address => Receipt[]) public receipts;\n\n    //the domain is bytes, because string is UTF-8 encoded and we cannot get its length\n    //the IP is bytes4 because it is more efficient in storing the sequence\n    function register(bytes domain, bytes4 ip) public payable {}\n    \n    function edit(bytes domain, bytes4 newIp) public {}\n    \n    function transferDomain(bytes domain, address newOwner) public {}\n    \n    function getIP(bytes domain) public view returns (bytes4) {}\n    \n    function getPrice(bytes domain) public view returns (uint) {}\n}",
  "sourcePath": "/Users/milenradkov/git/softuni/solidity-smart-contracts-2018/decentralized-dns/smart-contract/contracts/interfaces/DDNS.sol",
  "compiler": {
    "name": "solc",
    "version": "0.4.19+commit.c4cbbb05.Emscripten.clang"
  },
  "schemaVersion": "2.0.0",
  "updatedAt": "2018-03-29T08:13:21.667Z"
}