{
  "contractName": "DDNSService",
  "abi": [
    {
      "constant": true,
      "inputs": [
        {
          "name": "",
          "type": "address"
        },
        {
          "name": "",
          "type": "uint256"
        }
      ],
      "name": "paymentReceipts",
      "outputs": [
        {
          "name": "",
          "type": "bytes32"
        }
      ],
      "payable": false,
      "stateMutability": "view",
      "type": "function"
    },
    {
      "constant": true,
      "inputs": [],
      "name": "DOMAIN_NAME_COST_SHORT_ADDITION",
      "outputs": [
        {
          "name": "",
          "type": "uint256"
        }
      ],
      "payable": false,
      "stateMutability": "view",
      "type": "function"
    },
    {
      "constant": true,
      "inputs": [],
      "name": "DOMAIN_NAME_COST",
      "outputs": [
        {
          "name": "",
          "type": "uint256"
        }
      ],
      "payable": false,
      "stateMutability": "view",
      "type": "function"
    },
    {
      "constant": true,
      "inputs": [
        {
          "name": "",
          "type": "bytes32"
        }
      ],
      "name": "domainNames",
      "outputs": [
        {
          "name": "name",
          "type": "bytes"
        },
        {
          "name": "topLevel",
          "type": "bytes12"
        },
        {
          "name": "owner",
          "type": "address"
        },
        {
          "name": "ip",
          "type": "bytes4"
        },
        {
          "name": "expires",
          "type": "uint256"
        }
      ],
      "payable": false,
      "stateMutability": "view",
      "type": "function"
    },
    {
      "constant": true,
      "inputs": [],
      "name": "DOMAIN_NAME_EXPENSIVE_LENGTH",
      "outputs": [
        {
          "name": "",
          "type": "uint8"
        }
      ],
      "payable": false,
      "stateMutability": "view",
      "type": "function"
    },
    {
      "constant": true,
      "inputs": [],
      "name": "DOMAIN_NAME_MIN_LENGTH",
      "outputs": [
        {
          "name": "",
          "type": "uint8"
        }
      ],
      "payable": false,
      "stateMutability": "view",
      "type": "function"
    },
    {
      "constant": true,
      "inputs": [],
      "name": "DOMAIN_EXPIRATION_DATE",
      "outputs": [
        {
          "name": "",
          "type": "uint256"
        }
      ],
      "payable": false,
      "stateMutability": "view",
      "type": "function"
    },
    {
      "constant": false,
      "inputs": [],
      "name": "destroy",
      "outputs": [],
      "payable": false,
      "stateMutability": "nonpayable",
      "type": "function"
    },
    {
      "constant": true,
      "inputs": [],
      "name": "owner",
      "outputs": [
        {
          "name": "",
          "type": "address"
        }
      ],
      "payable": false,
      "stateMutability": "view",
      "type": "function"
    },
    {
      "constant": true,
      "inputs": [
        {
          "name": "",
          "type": "bytes32"
        }
      ],
      "name": "receiptDetails",
      "outputs": [
        {
          "name": "amountPaidWei",
          "type": "uint256"
        },
        {
          "name": "timestamp",
          "type": "uint256"
        },
        {
          "name": "expires",
          "type": "uint256"
        }
      ],
      "payable": false,
      "stateMutability": "view",
      "type": "function"
    },
    {
      "constant": true,
      "inputs": [],
      "name": "TOP_LEVEL_DOMAIN_MIN_LENGTH",
      "outputs": [
        {
          "name": "",
          "type": "uint8"
        }
      ],
      "payable": false,
      "stateMutability": "view",
      "type": "function"
    },
    {
      "constant": true,
      "inputs": [],
      "name": "BYTES_DEFAULT_VALUE",
      "outputs": [
        {
          "name": "",
          "type": "bytes1"
        }
      ],
      "payable": false,
      "stateMutability": "view",
      "type": "function"
    },
    {
      "constant": false,
      "inputs": [
        {
          "name": "_newOwner",
          "type": "address"
        }
      ],
      "name": "transferOwnership",
      "outputs": [],
      "payable": false,
      "stateMutability": "nonpayable",
      "type": "function"
    },
    {
      "constant": false,
      "inputs": [
        {
          "name": "_recipient",
          "type": "address"
        }
      ],
      "name": "destroyAndSend",
      "outputs": [],
      "payable": false,
      "stateMutability": "nonpayable",
      "type": "function"
    },
    {
      "inputs": [],
      "payable": false,
      "stateMutability": "nonpayable",
      "type": "constructor"
    },
    {
      "anonymous": false,
      "inputs": [
        {
          "indexed": true,
          "name": "timestamp",
          "type": "uint256"
        },
        {
          "indexed": false,
          "name": "domainName",
          "type": "bytes"
        },
        {
          "indexed": false,
          "name": "topLevel",
          "type": "bytes12"
        }
      ],
      "name": "LogDomainNameRegistered",
      "type": "event"
    },
    {
      "anonymous": false,
      "inputs": [
        {
          "indexed": true,
          "name": "timestamp",
          "type": "uint256"
        },
        {
          "indexed": false,
          "name": "domainName",
          "type": "bytes"
        },
        {
          "indexed": false,
          "name": "topLevel",
          "type": "bytes12"
        },
        {
          "indexed": true,
          "name": "owner",
          "type": "address"
        }
      ],
      "name": "LogDomainNameRenewed",
      "type": "event"
    },
    {
      "anonymous": false,
      "inputs": [
        {
          "indexed": true,
          "name": "timestamp",
          "type": "uint256"
        },
        {
          "indexed": false,
          "name": "domainName",
          "type": "bytes"
        },
        {
          "indexed": false,
          "name": "topLevel",
          "type": "bytes12"
        },
        {
          "indexed": true,
          "name": "owner",
          "type": "address"
        }
      ],
      "name": "LogDomainNameEdited",
      "type": "event"
    },
    {
      "anonymous": false,
      "inputs": [
        {
          "indexed": true,
          "name": "timestamp",
          "type": "uint256"
        },
        {
          "indexed": false,
          "name": "domainName",
          "type": "bytes"
        },
        {
          "indexed": false,
          "name": "topLevel",
          "type": "bytes12"
        },
        {
          "indexed": true,
          "name": "owner",
          "type": "address"
        },
        {
          "indexed": false,
          "name": "newOwner",
          "type": "address"
        }
      ],
      "name": "LogDomainNameTransferred",
      "type": "event"
    },
    {
      "anonymous": false,
      "inputs": [
        {
          "indexed": true,
          "name": "timestamp",
          "type": "uint256"
        },
        {
          "indexed": true,
          "name": "_owner",
          "type": "address"
        },
        {
          "indexed": false,
          "name": "amount",
          "type": "uint256"
        }
      ],
      "name": "LogPurchaseChangeReturned",
      "type": "event"
    },
    {
      "anonymous": false,
      "inputs": [
        {
          "indexed": true,
          "name": "timestamp",
          "type": "uint256"
        },
        {
          "indexed": false,
          "name": "domainName",
          "type": "bytes"
        },
        {
          "indexed": false,
          "name": "amountInWei",
          "type": "uint256"
        },
        {
          "indexed": false,
          "name": "expires",
          "type": "uint256"
        }
      ],
      "name": "LogReceipt",
      "type": "event"
    },
    {
      "anonymous": false,
      "inputs": [
        {
          "indexed": true,
          "name": "_currentOwner",
          "type": "address"
        },
        {
          "indexed": true,
          "name": "_newOwner",
          "type": "address"
        }
      ],
      "name": "LogOwnershipTransfered",
      "type": "event"
    },
    {
      "constant": false,
      "inputs": [
        {
          "name": "domain",
          "type": "bytes"
        },
        {
          "name": "topLevel",
          "type": "bytes12"
        },
        {
          "name": "ip",
          "type": "bytes4"
        }
      ],
      "name": "register",
      "outputs": [],
      "payable": true,
      "stateMutability": "payable",
      "type": "function"
    },
    {
      "constant": false,
      "inputs": [
        {
          "name": "domain",
          "type": "bytes"
        },
        {
          "name": "topLevel",
          "type": "bytes12"
        }
      ],
      "name": "renewDomainName",
      "outputs": [],
      "payable": true,
      "stateMutability": "payable",
      "type": "function"
    },
    {
      "constant": false,
      "inputs": [
        {
          "name": "domain",
          "type": "bytes"
        },
        {
          "name": "topLevel",
          "type": "bytes12"
        },
        {
          "name": "newIp",
          "type": "bytes4"
        }
      ],
      "name": "edit",
      "outputs": [],
      "payable": false,
      "stateMutability": "nonpayable",
      "type": "function"
    },
    {
      "constant": false,
      "inputs": [
        {
          "name": "domain",
          "type": "bytes"
        },
        {
          "name": "topLevel",
          "type": "bytes12"
        },
        {
          "name": "newOwner",
          "type": "address"
        }
      ],
      "name": "transferDomain",
      "outputs": [],
      "payable": false,
      "stateMutability": "nonpayable",
      "type": "function"
    },
    {
      "constant": true,
      "inputs": [
        {
          "name": "domain",
          "type": "bytes"
        },
        {
          "name": "topLevel",
          "type": "bytes12"
        }
      ],
      "name": "getIP",
      "outputs": [
        {
          "name": "",
          "type": "bytes4"
        }
      ],
      "payable": false,
      "stateMutability": "view",
      "type": "function"
    },
    {
      "constant": true,
      "inputs": [
        {
          "name": "domain",
          "type": "bytes"
        }
      ],
      "name": "getPrice",
      "outputs": [
        {
          "name": "",
          "type": "uint256"
        }
      ],
      "payable": false,
      "stateMutability": "view",
      "type": "function"
    },
    {
      "constant": true,
      "inputs": [],
      "name": "getReceiptList",
      "outputs": [
        {
          "name": "",
          "type": "bytes32[]"
        }
      ],
      "payable": false,
      "stateMutability": "view",
      "type": "function"
    },
    {
      "constant": true,
      "inputs": [
        {
          "name": "domain",
          "type": "bytes"
        },
        {
          "name": "topLevel",
          "type": "bytes12"
        }
      ],
      "name": "getDomainHash",
      "outputs": [
        {
          "name": "",
          "type": "bytes32"
        }
      ],
      "payable": false,
      "stateMutability": "pure",
      "type": "function"
    },
    {
      "constant": true,
      "inputs": [
        {
          "name": "domain",
          "type": "bytes"
        },
        {
          "name": "topLevel",
          "type": "bytes12"
        }
      ],
      "name": "getReceiptKey",
      "outputs": [
        {
          "name": "",
          "type": "bytes32"
        }
      ],
      "payable": false,
      "stateMutability": "view",
      "type": "function"
    },
    {
      "constant": false,
      "inputs": [],
      "name": "withdraw",
      "outputs": [],
      "payable": false,
      "stateMutability": "nonpayable",
      "type": "function"
    }
  ],
  "bytecode": "0x6060604052341561000f57600080fd5b336000806101000a81548173ffffffffffffffffffffffffffffffffffffffff021916908373ffffffffffffffffffffffffffffffffffffffff160217905550611f528061005e6000396000f30060606040526004361061013e576000357c0100000000000000000000000000000000000000000000000000000000900463ffffffff16806304f9c16d14610143578063080f81ba146101a1578063148d9417146101ca578063316d2d78146101f35780633ccfd60b146103645780634e03255a146103795780634e6fcc1414610412578063666916f8146104415780636ac98cdf146104705780636b4dd1581461050957806373ff42a21461057a5780637fa594d3146105a357806383197ef0146106725780638da5cb5b14610687578063a79eebbc146106dc578063b4d9e77b14610746578063b7a1ff8f146107b8578063bd5a1ae514610801578063d678ddf5146108a6578063d6fdbf1d146108d5578063d8d577331461096f578063f2fde38b146109dc578063f30b70e314610a15578063f5074f4114610ab1575b600080fd5b341561014e57600080fd5b610183600480803573ffffffffffffffffffffffffffffffffffffffff16906020019091908035906020019091905050610aea565b60405180826000191660001916815260200191505060405180910390f35b34156101ac57600080fd5b6101b4610b1b565b6040518082815260200191505060405180910390f35b34156101d557600080fd5b6101dd610b27565b6040518082815260200191505060405180910390f35b34156101fe57600080fd5b610218600480803560001916906020019091905050610b33565b60405180806020018673ffffffffffffffffffffffffffffffffffffffff191673ffffffffffffffffffffffffffffffffffffffff191681526020018573ffffffffffffffffffffffffffffffffffffffff1673ffffffffffffffffffffffffffffffffffffffff168152602001847bffffffffffffffffffffffffffffffffffffffffffffffffffffffff19167bffffffffffffffffffffffffffffffffffffffffffffffffffffffff191681526020018381526020018281038252878181546001816001161561010002031660029004815260200191508054600181600116156101000203166002900480156103515780601f1061032657610100808354040283529160200191610351565b820191906000526020600020905b81548152906001019060200180831161033457829003601f168201915b5050965050505050505060405180910390f35b341561036f57600080fd5b610377610bd2565b005b341561038457600080fd5b6103f4600480803590602001908201803590602001908080601f0160208091040260200160405190810160405280939291908181526020018383808284378201915050505050509190803573ffffffffffffffffffffffffffffffffffffffff1916906020019091905050610ca7565b60405180826000191660001916815260200191505060405180910390f35b341561041d57600080fd5b610425610d95565b604051808260ff1660ff16815260200191505060405180910390f35b341561044c57600080fd5b610454610d9a565b604051808260ff1660ff16815260200191505060405180910390f35b341561047b57600080fd5b6104eb600480803590602001908201803590602001908080601f0160208091040260200160405190810160405280939291908181526020018383808284378201915050505050509190803573ffffffffffffffffffffffffffffffffffffffff1916906020019091905050610d9f565b60405180826000191660001916815260200191505060405180910390f35b341561051457600080fd5b610564600480803590602001908201803590602001908080601f01602080910402602001604051908101604052809392919081815260200183838082843782019150505050505091905050610e42565b6040518082815260200191505060405180910390f35b341561058557600080fd5b61058d610e74565b6040518082815260200191505060405180910390f35b34156105ae57600080fd5b61061e600480803590602001908201803590602001908080601f0160208091040260200160405190810160405280939291908181526020018383808284378201915050505050509190803573ffffffffffffffffffffffffffffffffffffffff1916906020019091905050610e7c565b60405180827bffffffffffffffffffffffffffffffffffffffffffffffffffffffff19167bffffffffffffffffffffffffffffffffffffffffffffffffffffffff1916815260200191505060405180910390f35b341561067d57600080fd5b610685610edc565b005b341561069257600080fd5b61069a610f71565b604051808273ffffffffffffffffffffffffffffffffffffffff1673ffffffffffffffffffffffffffffffffffffffff16815260200191505060405180910390f35b34156106e757600080fd5b6106ef610f96565b6040518080602001828103825283818151815260200191508051906020019060200280838360005b83811015610732578082015181840152602081019050610717565b505050509050019250505060405180910390f35b6107b6600480803590602001908201803590602001908080601f0160208091040260200160405190810160405280939291908181526020018383808284378201915050505050509190803573ffffffffffffffffffffffffffffffffffffffff1916906020019091905050611035565b005b34156107c357600080fd5b6107dd6004808035600019169060200190919050506112f9565b60405180848152602001838152602001828152602001935050505060405180910390f35b341561080c57600080fd5b6108a4600480803590602001908201803590602001908080601f0160208091040260200160405190810160405280939291908181526020018383808284378201915050505050509190803573ffffffffffffffffffffffffffffffffffffffff19169060200190919080357bffffffffffffffffffffffffffffffffffffffffffffffffffffffff1916906020019091905050611323565b005b34156108b157600080fd5b6108b9611503565b604051808260ff1660ff16815260200191505060405180910390f35b61096d600480803590602001908201803590602001908080601f0160208091040260200160405190810160405280939291908181526020018383808284378201915050505050509190803573ffffffffffffffffffffffffffffffffffffffff19169060200190919080357bffffffffffffffffffffffffffffffffffffffffffffffffffffffff1916906020019091905050611508565b005b341561097a57600080fd5b6109826119b7565b60405180827effffffffffffffffffffffffffffffffffffffffffffffffffffffffffffff19167effffffffffffffffffffffffffffffffffffffffffffffffffffffffffffff1916815260200191505060405180910390f35b34156109e757600080fd5b610a13600480803573ffffffffffffffffffffffffffffffffffffffff169060200190919050506119de565b005b3415610a2057600080fd5b610aaf600480803590602001908201803590602001908080601f0160208091040260200160405190810160405280939291908181526020018383808284378201915050505050509190803573ffffffffffffffffffffffffffffffffffffffff191690602001909190803573ffffffffffffffffffffffffffffffffffffffff16906020019091905050611ad6565b005b3415610abc57600080fd5b610ae8600480803573ffffffffffffffffffffffffffffffffffffffff16906020019091905050611cf0565b005b600260205281600052604060002081815481101515610b0557fe5b9060005260206000209001600091509150505481565b670de0b6b3a764000081565b670de0b6b3a764000081565b600160205280600052604060002060009150905080600001908060010160009054906101000a900474010000000000000000000000000000000000000000029080600101600c9054906101000a900473ffffffffffffffffffffffffffffffffffffffff16908060020160009054906101000a90047c010000000000000000000000000000000000000000000000000000000002908060030154905085565b6000809054906101000a900473ffffffffffffffffffffffffffffffffffffffff1673ffffffffffffffffffffffffffffffffffffffff163373ffffffffffffffffffffffffffffffffffffffff16141515610c2d57600080fd5b6000809054906101000a900473ffffffffffffffffffffffffffffffffffffffff1673ffffffffffffffffffffffffffffffffffffffff166108fc3073ffffffffffffffffffffffffffffffffffffffff16319081150290604051600060405180830381858888f193505050501515610ca557600080fd5b565b6000828233426040518085805190602001908083835b602083101515610ce25780518252602082019150602081019050602083039250610cbd565b6001836020036101000a0380198251168184511680821785525050505050509050018473ffffffffffffffffffffffffffffffffffffffff191673ffffffffffffffffffffffffffffffffffffffff19168152600c018373ffffffffffffffffffffffffffffffffffffffff1673ffffffffffffffffffffffffffffffffffffffff166c010000000000000000000000000281526014018281526020019450505050506040518091039020905092915050565b600881565b600581565b600082826040518083805190602001908083835b602083101515610dd85780518252602082019150602081019050602083039250610db3565b6001836020036101000a0380198251168184511680821785525050505050509050018273ffffffffffffffffffffffffffffffffffffffff191673ffffffffffffffffffffffffffffffffffffffff19168152600c01925050506040518091039020905092915050565b6000600860ff1682511015610e6357670de0b6b3a764000080019050610e6f565b670de0b6b3a764000090505b919050565b6301e1338081565b600080610e898484610d9f565b905060016000826000191660001916815260200190815260200160002060020160009054906101000a90047c01000000000000000000000000000000000000000000000000000000000291505092915050565b6000809054906101000a900473ffffffffffffffffffffffffffffffffffffffff1673ffffffffffffffffffffffffffffffffffffffff163373ffffffffffffffffffffffffffffffffffffffff16141515610f3757600080fd5b6000809054906101000a900473ffffffffffffffffffffffffffffffffffffffff1673ffffffffffffffffffffffffffffffffffffffff16ff5b6000809054906101000a900473ffffffffffffffffffffffffffffffffffffffff1681565b610f9e611d64565b600260003373ffffffffffffffffffffffffffffffffffffffff1673ffffffffffffffffffffffffffffffffffffffff16815260200190815260200160002080548060200260200160405190810160405280929190818152602001828054801561102b57602002820191906000526020600020905b81546000191681526020019060010190808311611013575b5050505050905090565b600061103f611d78565b60008484600061104f8383610d9f565b90503373ffffffffffffffffffffffffffffffffffffffff16600160008360001916600019168152602001908152602001600020600101600c9054906101000a900473ffffffffffffffffffffffffffffffffffffffff1673ffffffffffffffffffffffffffffffffffffffff161415156110c957600080fd5b8760006110d582610e42565b90508034101515156110e657600080fd5b6110f08a8a610d9f565b97506301e13380600160008a6000191660001916815260200190815260200160002060030160008282540192505081905550606060405190810160405280670de0b6b3a764000081526020014281526020016301e13380420181525096506111588a8a610ca7565b9550600260003373ffffffffffffffffffffffffffffffffffffffff1673ffffffffffffffffffffffffffffffffffffffff16815260200190815260200160002080548060010182816111ab9190611d9a565b916000526020600020900160008890919091509060001916905550866003600088600019166000191681526020019081526020016000206000820151816000015560208201518160010155604082015181600201559050503373ffffffffffffffffffffffffffffffffffffffff16427f4164715c0e5c59941e6e13d4801ec49371896676546912145e8325a848d7f4f58c8c60405180806020018373ffffffffffffffffffffffffffffffffffffffff191673ffffffffffffffffffffffffffffffffffffffff19168152602001828103825284818151815260200191508051906020019080838360005b838110156112b2578082015181840152602081019050611297565b50505050905090810190601f1680156112df5780820380516001836020036101000a031916815260200191505b50935050505060405180910390a350505050505050505050565b60036020528060005260406000206000915090508060000154908060010154908060020154905083565b6000838360006113338383610d9f565b90503373ffffffffffffffffffffffffffffffffffffffff16600160008360001916600019168152602001908152602001600020600101600c9054906101000a900473ffffffffffffffffffffffffffffffffffffffff1673ffffffffffffffffffffffffffffffffffffffff161415156113ad57600080fd5b6113b78787610d9f565b93508460016000866000191660001916815260200190815260200160002060020160006101000a81548163ffffffff02191690837c0100000000000000000000000000000000000000000000000000000000900402179055503373ffffffffffffffffffffffffffffffffffffffff16427fd35a203fd4f289a38dfde49a9015391dbbc221e5f2a1cca97c0b2800bf90b367898960405180806020018373ffffffffffffffffffffffffffffffffffffffff191673ffffffffffffffffffffffffffffffffffffffff19168152602001828103825284818151815260200191508051906020019080838360005b838110156114bf5780820151818401526020810190506114a4565b50505050905090810190601f1680156114ec5780820380516001836020036101000a031916815260200191505b50935050505060405180910390a350505050505050565b600181565b6000611512611dc6565b61151a611d78565b600086600560ff16815111151561153057600080fd5b86600160ff16600c60ff161015151561154857600080fd5b888860006115568383610d9f565b9050426001600083600019166000191681526020019081526020016000206003015410151561158457600080fd5b8b600061159082610e42565b90508034101515156115a157600080fd5b6115ab8e8e610d9f565b9a5060a0604051908101604052808f81526020018e73ffffffffffffffffffffffffffffffffffffffff191681526020013373ffffffffffffffffffffffffffffffffffffffff1681526020018d7bffffffffffffffffffffffffffffffffffffffffffffffffffffffff191681526020016301e133804201815250995089600160008d600019166000191681526020019081526020016000206000820151816000019080519060200190611661929190611e48565b5060208201518160010160006101000a8154816bffffffffffffffffffffffff02191690837401000000000000000000000000000000000000000090040217905550604082015181600101600c6101000a81548173ffffffffffffffffffffffffffffffffffffffff021916908373ffffffffffffffffffffffffffffffffffffffff16021790555060608201518160020160006101000a81548163ffffffff02191690837c01000000000000000000000000000000000000000000000000000000009004021790555060808201518160030155905050606060405190810160405280670de0b6b3a764000081526020014281526020016301e133804201815250985061176e8e8e610ca7565b9750600260003373ffffffffffffffffffffffffffffffffffffffff1673ffffffffffffffffffffffffffffffffffffffff16815260200190815260200160002080548060010182816117c19190611d9a565b916000526020600020900160008a9091909150906000191690555088600360008a60001916600019168152602001908152602001600020600082015181600001556020820151816001015560408201518160020155905050427f690691adf5dcf1256b88c5de131a8bbbf6cfa0dc88d43b4b8d52e326f0021b868f670de0b6b3a76400006301e1338042016040518080602001848152602001838152602001828103825285818151815260200191508051906020019080838360005b8381101561189857808201518184015260208101905061187d565b50505050905090810190601f1680156118c55780820380516001836020036101000a031916815260200191505b5094505050505060405180910390a2427f866386c63f5535a3e914902c8867674abc47d0cf171c07e538ec40525fe8033b8f8f60405180806020018373ffffffffffffffffffffffffffffffffffffffff191673ffffffffffffffffffffffffffffffffffffffff19168152602001828103825284818151815260200191508051906020019080838360005b8381101561196c578082015181840152602081019050611951565b50505050905090810190601f1680156119995780820380516001836020036101000a031916815260200191505b50935050505060405180910390a25050505050505050505050505050565b60007f01000000000000000000000000000000000000000000000000000000000000000281565b6000809054906101000a900473ffffffffffffffffffffffffffffffffffffffff1673ffffffffffffffffffffffffffffffffffffffff163373ffffffffffffffffffffffffffffffffffffffff16141515611a3957600080fd5b806000806101000a81548173ffffffffffffffffffffffffffffffffffffffff021916908373ffffffffffffffffffffffffffffffffffffffff1602179055508073ffffffffffffffffffffffffffffffffffffffff163373ffffffffffffffffffffffffffffffffffffffff167fc6016f7f1dfbfa136ba6e93f34ff92b95d5b9d4dcb571002078f50f1dad51e1360405160405180910390a350565b600083836000611ae68383610d9f565b90503373ffffffffffffffffffffffffffffffffffffffff16600160008360001916600019168152602001908152602001600020600101600c9054906101000a900473ffffffffffffffffffffffffffffffffffffffff1673ffffffffffffffffffffffffffffffffffffffff16141515611b6057600080fd5b611b6a8787610d9f565b935084600160008660001916600019168152602001908152602001600020600101600c6101000a81548173ffffffffffffffffffffffffffffffffffffffff021916908373ffffffffffffffffffffffffffffffffffffffff1602179055503373ffffffffffffffffffffffffffffffffffffffff16427f4ae77a0d854d432937d6a090209418c3673044142d83c16c9745731194b8527089898960405180806020018473ffffffffffffffffffffffffffffffffffffffff191673ffffffffffffffffffffffffffffffffffffffff191681526020018373ffffffffffffffffffffffffffffffffffffffff1673ffffffffffffffffffffffffffffffffffffffff168152602001828103825285818151815260200191508051906020019080838360005b83811015611cab578082015181840152602081019050611c90565b50505050905090810190601f168015611cd85780820380516001836020036101000a031916815260200191505b5094505050505060405180910390a350505050505050565b6000809054906101000a900473ffffffffffffffffffffffffffffffffffffffff1673ffffffffffffffffffffffffffffffffffffffff163373ffffffffffffffffffffffffffffffffffffffff16141515611d4b57600080fd5b8073ffffffffffffffffffffffffffffffffffffffff16ff5b602060405190810160405280600081525090565b6060604051908101604052806000815260200160008152602001600081525090565b815481835581811511611dc157818360005260206000209182019101611dc09190611ec8565b5b505050565b60a060405190810160405280611dda611eed565b8152602001600073ffffffffffffffffffffffffffffffffffffffff19168152602001600073ffffffffffffffffffffffffffffffffffffffff16815260200160007bffffffffffffffffffffffffffffffffffffffffffffffffffffffff19168152602001600081525090565b828054600181600116156101000203166002900490600052602060002090601f016020900481019282601f10611e8957805160ff1916838001178555611eb7565b82800160010185558215611eb7579182015b82811115611eb6578251825591602001919060010190611e9b565b5b509050611ec49190611f01565b5090565b611eea91905b80821115611ee6576000816000905550600101611ece565b5090565b90565b602060405190810160405280600081525090565b611f2391905b80821115611f1f576000816000905550600101611f07565b5090565b905600a165627a7a72305820259b0c4a4da997481edc1fa69e5de2d2d2f298d87ef76d9875c2449fd7a126cc0029",
  "source": "pragma solidity ^0.4.18;\n\nimport './common/Ownable.sol';\nimport './common/Destructible.sol';\nimport './libs/SafeMath.sol';\n\ncontract DDNSService is Destructible {\n\n    using SafeMath for uint256;\n\n    struct DomainDetails {\n        bytes name;\n        bytes12 topLevel;\n        address owner;\n        bytes4 ip;\n        uint expires;\n    }\n\n    struct Receipt {\n        uint amountPaidWei;\n        uint timestamp;\n        uint expires;\n    }\n\n    uint constant public DOMAIN_NAME_COST = 1 ether;\n    uint constant public DOMAIN_NAME_COST_SHORT_ADDITION = 1 ether;\n    uint constant public DOMAIN_EXPIRATION_DATE = 1 years;\n    uint8 public constant DOMAIN_NAME_MIN_LENGTH = 5;\n    uint8 public constant DOMAIN_NAME_EXPENSIVE_LENGTH = 8;\n    uint8 public constant TOP_LEVEL_DOMAIN_MIN_LENGTH = 1;\n    bytes1 public constant BYTES_DEFAULT_VALUE = bytes1(0x00);\n    \n    mapping (bytes32 => DomainDetails) public domainNames;\n    mapping(address => bytes32[]) public paymentReceipts;\n    mapping(bytes32 => Receipt) public receiptDetails;\n\n    modifier isAvailable(bytes domain, bytes12 topLevel) {\n        bytes32 domainHash = getDomainHash(domain, topLevel);\n        require(domainNames[domainHash].expires < block.timestamp);\n        _;\n    }\n\n    modifier collectDomainNamePayment(bytes domain) {\n        uint domainPrice = getPrice(domain);\n        require(msg.value >= domainPrice);\n        _;\n    }\n\n    modifier isDomainOwner(bytes domain, bytes12 topLevel) {\n        bytes32 domainHash = getDomainHash(domain, topLevel);\n        require(domainNames[domainHash].owner == msg.sender);\n        _;\n    }\n\n    modifier isDomainNameLengthAllowed(bytes domain) {\n        require(domain.length > DOMAIN_NAME_MIN_LENGTH);\n        _;\n    }\n\n    modifier isTopLevelLengthAllowed(bytes12 topLevel) {\n        require(topLevel.length >= TOP_LEVEL_DOMAIN_MIN_LENGTH);\n        _;\n    }\n\n    /**\n     *  EVENTS\n     */\n    event LogDomainNameRegistered(uint indexed timestamp, bytes domainName, bytes12 topLevel);\n    event LogDomainNameRenewed(uint indexed timestamp, bytes domainName, bytes12 topLevel, address indexed owner); \n    event LogDomainNameEdited(uint indexed timestamp, bytes domainName, bytes12 topLevel, address indexed owner); \n    event LogDomainNameTransferred(uint indexed timestamp, bytes domainName, bytes12 topLevel, address indexed owner, address newOwner); \n    event LogPurchaseChangeReturned(uint indexed timestamp, address indexed _owner, uint amount);\n    event LogReceipt(uint indexed timestamp, bytes domainName, uint amountInWei, uint expires);\n\n\n    function DDNSService() public {\n        \n    }\n    \n    /*\n     * @dev - function to regiter domain name\n     * @param domain - domain name to be registered\n     * @param ip - the ip of the host\n     */\n    function register(bytes domain, bytes12 topLevel, bytes4 ip) public payable isDomainNameLengthAllowed(domain) isTopLevelLengthAllowed(topLevel) isAvailable(domain, topLevel) collectDomainNamePayment(domain) {\n        bytes32 domainHash = getDomainHash(domain, topLevel);\n\n        DomainDetails memory newDomain = DomainDetails({name: domain, topLevel: topLevel, owner: msg.sender, ip: ip, expires: block.timestamp + DOMAIN_EXPIRATION_DATE});\n        domainNames[domainHash] = newDomain;\n        \n        Receipt memory newReceipt = Receipt({amountPaidWei: DOMAIN_NAME_COST, timestamp: block.timestamp, expires: block.timestamp + DOMAIN_EXPIRATION_DATE});\n        bytes32 receiptKey = getReceiptKey(domain, topLevel);\n        paymentReceipts[msg.sender].push(receiptKey);\n        receiptDetails[receiptKey] = newReceipt;\n        LogReceipt(block.timestamp, domain, DOMAIN_NAME_COST, block.timestamp + DOMAIN_EXPIRATION_DATE);\n    \n        LogDomainNameRegistered(block.timestamp, domain, topLevel);\n    }\n\n    /*\n     * @dev - function to extend domain expiration date\n     * @param domain - domain name to be registered\n     * @param ip - the ip of the host\n     */\n    function renewDomainName(bytes domain, bytes12 topLevel) public payable isDomainOwner(domain, topLevel) collectDomainNamePayment(domain) {\n        bytes32 domainHash = getDomainHash(domain, topLevel);\n        domainNames[domainHash].expires += 1 years;\n        Receipt memory newReceipt = Receipt({amountPaidWei: DOMAIN_NAME_COST, timestamp: block.timestamp, expires: block.timestamp + DOMAIN_EXPIRATION_DATE});\n        bytes32 receiptKey = getReceiptKey(domain, topLevel);\n        paymentReceipts[msg.sender].push(receiptKey);\n        receiptDetails[receiptKey] = newReceipt;\n\n        LogDomainNameRenewed(block.timestamp, domain, topLevel, msg.sender);\n    }\n    \n    /*\n     * @dev - function to edit domain name\n     * @param domain - the domain name to be editted\n     * @param newIp - the new ip for the domain\n     */\n    function edit(bytes domain, bytes12 topLevel, bytes4 newIp) public isDomainOwner(domain, topLevel) {\n        bytes32 domainHash = getDomainHash(domain, topLevel);        \n        domainNames[domainHash].ip = newIp;\n        LogDomainNameEdited(block.timestamp, domain, topLevel, msg.sender);\n    }\n    \n    /*\n     * @dev -\n     * @param \n     * @return\n     */\n    function transferDomain(bytes domain, bytes12 topLevel, address newOwner) public isDomainOwner(domain, topLevel) {\n        bytes32 domainHash = getDomainHash(domain, topLevel);\n        domainNames[domainHash].owner = newOwner;\n        LogDomainNameTransferred(block.timestamp, domain, topLevel, msg.sender, newOwner);\n    }\n    \n    /*\n     * @dev -\n     * @param \n     * @return\n     */\n    function getIP(bytes domain, bytes12 topLevel) public view returns (bytes4) {\n        bytes32 domainHash = getDomainHash(domain, topLevel);\n        return domainNames[domainHash].ip;\n    }\n    \n    /*\n     * @dev -\n     * @param \n     * @return\n     */\n    function getPrice(bytes domain) public view returns (uint) {\n        if (domain.length < DOMAIN_NAME_EXPENSIVE_LENGTH) {\n            return DOMAIN_NAME_COST + DOMAIN_NAME_COST_SHORT_ADDITION;\n        }\n\n        return DOMAIN_NAME_COST;\n    }\n    \n    /*\n     * @dev - Get receipts \n     * @param \n     * @return\n     */\n    function getReceiptList() public view returns (bytes32[]) {\n        return paymentReceipts[msg.sender];\n    }\n\n    /*\n     * @dev - Get domain name + top level hash \n     * @param domain\n     * @param topLevel\n     * @return\n     */\n    function getDomainHash(bytes domain, bytes12 topLevel) public pure returns(bytes32) {\n        return keccak256(domain, topLevel);\n    } \n\n    /*\n     * @dev - Get recepit key\n     * @param domain\n     * @param topLevel\n     * @return\n     */\n    function getReceiptKey(bytes domain, bytes12 topLevel) public view returns(bytes32) {\n        return keccak256(domain, topLevel, msg.sender, block.timestamp);\n    } \n\n    /*\n     * @dev - Get receipts \n     * @param \n     * @return\n     */\n    function withdraw() public onlyOwner {\n        owner.transfer(address(this).balance);\n    }\n}",
  "sourcePath": "/Users/milenradkov/git/softuni/solidity-smart-contracts-2018/decentralized-dns/smart-contract/contracts/DDNSService.sol",
  "compiler": {
    "name": "solc",
    "version": "0.4.19+commit.c4cbbb05.Emscripten.clang"
  },
  "schemaVersion": "2.0.0",
  "updatedAt": "2018-03-29T20:53:56.165Z"
}